:020000040800F2
:10000000B0270020CD010008D5010008B302000888
:10001000D9010008DB010008DD0100080000000034
:10002000000000000000000000000000DF010008E8
:10003000E1010008000000003B020008F90600088A
:10004000E7010008E7010008E7010008E7010008F0
:10005000E7010008E7010008E7010008E7010008E0
:10006000E7010008E7010008E7010008E7010008D0
:10007000E7010008E7010008E7010008E7010008C0
:10008000E7010008E7010008E7010008E7010008B0
:10009000E7010008E7010008E7010008E7010008A0
:1000A000E7010008E7010008E7010008E701000890
:1000B000E7010008E7010008E7010008E701000880
:1000C000E7010008E7010008E7010008E701000870
:1000D000E7010008E7010008E7010008E701000860
:1000E000E7010008E7010008E7010008E701000850
:1000F000E7010008E7010008E7010008E701000840
:10010000E7010008E7010008E7010008E70100082F
:10011000E7010008E7010008E7010008E70100081F
:10012000E7010008E7010008E7010008E70100080F
:1001300000F002F800F03AF80AA090E8000C8244BF
:100140008344AAF10107DA4501D100F02FF8AFF29C
:10015000090EBAE80F0013F0010F18BFFB1A43F0A5
:10016000010318474C2700006C270000103A24BFF9
:1001700078C878C1FAD8520724BF30C830C144BF0C
:1001800004680C607047000000230024002500264E
:10019000103A28BF78C1FBD8520728BF30C148BFEA
:1001A0000B6070471FB51FBD10B510BD00F0A9F85A
:1001B0001146FFF7F7FF00F0DEF800F0C7F803B4D0
:1001C000FFF7F2FF03BC00F0CFF8000009488047BA
:1001D00009480047FEE7FEE7FEE7FEE7FEE7FEE729
:1001E000FEE7FEE7FEE7FEE704480549054A064B41
:1001F000704700000907000831010008B021002005
:10020000B0270020B0230020B0230020EFF310809F
:1002100072B6704780F310887047324A1368012B1A
:1002200004D04FF0010313602F4A10602F4A116071
:100230002F484FF0805101607047EFF3108272B683
:100240002848016891B14FF000010160264801681B
:1002500029B1EFF3098121E9F00F0068016023491A
:1002600009680968B1E8F00F81F3098882F3108802
:100270004EF0040E70471D4908601B494FF0000006
:10028000086018494FF0010008601A484FF47F01D8
:10029000D0F8002041EA0201016015484FF080517A
:1002A000016015480068006880F3088861B662B68E
:1002B00070471EF0040F14BFEFF30880EFF30980BE
:1002C00020E9F00F40F804ED14BF80F3088880F3B4
:1002D000098800B500F0C4FE5DF804EB4EF0040E92
:1002E00070470000C0000020B8000020BC000020C3
:1002F00004ED00E020ED00E008ED00E070477047FD
:100300007047754600F02CF8AE4605006946534626
:1003100020F00700854618B020B5FFF765FFBDE85F
:1003200020404FF000064FF000074FF000084FF05C
:10033000000B21F00701AC46ACE8C009ACE8C009ED
:10034000ACE8C009ACE8C0098D46704710B504465A
:10035000AFF300802046BDE81040FFF730BF00003B
:10036000004870474C21002001491820ABBEFEE731
:1003700026000200704710B5FFF748FF02F08EF923
:10038000002010BD2DE9F041024600250026002086
:1003900000230024002791F803C00CF00F0591F80A
:1003A00003C00CF0100CBCF1000F03D091F802C098
:1003B0004CEA050591F800C0BCF1000F31D014687B
:1003C00000202BE04FF0010C0CFA00F3B1F800C054
:1003D0000CEA03069E4220D183004FF00F0C0CFA6A
:1003E00003F7BC4305FA03FC4CEA040491F803C08C
:1003F000BCF1280F06D14FF0010C0CFA00FCC2F83A
:1004000014C00AE091F803C0BCF1480F05D14FF0C9
:10041000010C0CFA00FCC2F810C0401C0828D1D313
:100420001460B1F800C0BCF1FF0F34DD5468002047
:100430002EE000F1080C4FF0010808FA0CF3B1F8B7
:1004400000C00CEA03069E4221D183004FF00F0C3E
:100450000CFA03F7BC4305FA03FC4CEA040491F8D8
:1004600003C0BCF1280F05D100F1080C08FA0CF804
:10047000C2F8148091F803C0BCF1480F07D100F115
:10048000080C4FF0010808FA0CF8C2F81080401C64
:100490000828CED35460BDE8F08141617047016106
:1004A0007047000008B50121042000F037F828202B
:1004B0008DF803000120ADF8000003208DF8020044
:1004C00069460248FFF75EFF08BD000000080140D2
:1004D000014611B101200F4A10700E48007870B12A
:1004E0000D48006800F0010048B10020094A107072
:1004F0000948006800F0010048B101207047064833
:10050000006800F0010010B90120024A10700020BC
:10051000F4E70000C80000200808014029B1064A9D
:1005200092690243044B9A6104E0034A9269824350
:10053000014B9A61704700000010024030B5002165
:100540000022002400232D4D6D6805F00C0121B11F
:10055000042905D0082923D105E0294D056022E0B2
:10056000274D05601FE0254D6D6805F47012234D81
:100570006D6805F48034022505EB92421CB9214DCB
:10058000554305600BE01D4D6D6805F400351DB148
:100590001C4D5543056002E0194D5543056002E0CE
:1005A000174D056000BF00BF144D6D6805F0F001E8
:1005B0000909154D6B5C0568DD4045600F4D6D68A0
:1005C00005F4E061090A104D6B5C4568DD4085600B
:1005D0000A4D6D6805F46051C90A0B4D6B5C4568A6
:1005E000DD40C560054D6D6805F44041890B074D40
:1005F0006B5CC568B5FBF3F5056130BD00100240CA
:1006000000127A0000093D001400002024000020A0
:1006100010B500F001F810BD0CB50020019000905D
:100620003348006840F480303149086000BF3048EA
:10063000006800F4003000900198401C0190009880
:1006400018B90198B0F5A06FF1D12948006800F4FD
:10065000003010B10120009001E0002000900098CF
:10066000012843D12348006840F010002149086068
:100670000846006820F0030008600846006840F063
:10068000020008601A4840681949486008464068F6
:1006900048600846406840F480604860084640680A
:1006A00020F47C1048600846406840F4E810486038
:1006B0000846006840F08070086000BF0C48006881
:1006C00000F000700028F9D00948406820F00300CD
:1006D000074948600846406840F00200486000BF93
:1006E0000348406800F00C000828F9D10CBD000058
:1006F000001002400020024010B500F0D7FD01F0CC
:1007000003FD00F0E3FD10BD10B51348006840F094
:1007100001001149086008464068104908400E4928
:100720004860084600680E4908400B4908600846C2
:10073000006820F4802008600846406820F4FE002D
:1007400048604FF41F008860FFF762FF4FF00060C1
:100750000449086010BD0000001002400000FFF8CE
:10076000FFFFF6FE08ED00E021B1828942F400525D
:10077000828104E082894DF6FF731A4082817047BE
:1007800002460020B1F5007F00D100BF13880B4066
:100790000BB1012000E00020704700002DE9F04778
:1007A00086B005460E460024A24600BFA14600279B
:1007B000B08900B100BF2F462C8A4CF6FF70044070
:1007C000F08804432C82AC894EF6F3100440B088C4
:1007D00031890843718908430443AC81AC8A4FF6E0
:1007E000FF400440B0890443AC8201A8FFF7A6FE95
:1007F0001F48874202D1DDF810A001E0DDF80CA00F
:10080000A88900F4004040B10AEBCA0000EB0A10CE
:1008100031684900B0FBF1F807E00AEBCA0000EBD1
:100820000A1031688900B0FBF1F86420B8FBF0F0E1
:1008300004012009642101FB1089A88900F400400B
:1008400040B1322000EBC900B0FBF1F000F007002E
:10085000044308E0322000EB09106421B0FBF1F002
:1008600000F00F0004432C8106B0BDE8F0870000C3
:1008700000380140C1F3080282807047014609B97F
:1008800000207047C8B220B1C8B20E4A105C401CAC
:10089000F7E701F47F4028B10A48C1F30722805CE2
:1008A0000930EEE701F47F0028B10648C1F30742A2
:1008B000805C1130E5E7034800EB116000781930E7
:1008C000DFE700006C27000803490868884201D070
:1008D000012070470020FCE7A40000202DE9FC5F08
:1008E00004468B4615461E46DDE90C9ADDE90E7876
:1008F00004F114004060006000BF1C346560A66015
:10090000C4F80C90C4F810A02321D4E9030200F02D
:1009100072FFD4E9033C63441A1F0F4BD4E9010171
:1009200000F09EFC2060A77667760020E061C4F8A6
:100930002080C4F82480606120766065A0651C3C3E
:1009400000902346054A2146019004F1440001F03D
:100950005DFC0020BDE8FC9F2D1E000879200008EA
:100960002DE9F04704460E4617469846DDF82090DC
:1009700084F80990607A20F001006072E6612762D5
:100980000020A062C4F82480002506E004F11401D0
:1009900001EBC50000F010FD6D1C012DF6DBBDE87C
:1009A000F08710B50246002001460EE002F1140364
:1009B00003EBC100D0E900436360D0E90034236059
:1009C0004060006000BF481C01460129EEDB10BDFD
:1009D00015E00020FFF77CFD70B109480168094867
:1009E000006800F084FE04461CB907A000F0C6FCB5
:1009F00002E009A000F0C2FC052001F010FAE8E7CF
:100A0000300000202C000020D3CACFE4B7A2CBCD09
:100A1000B3C9B9A60D0A0000D3CACFE4B7A2CBCDA3
:100A2000CAA7B0DC0D0A000008B501214820FFF775
:100A300075FD10208DF803002020ADF80000032084
:100A40008DF8020069460848FFF79CFC2021064803
:100A5000FFF725FD69460548FFF794FC2021034870
:100A6000FFF71DFD08BD0000000C0140001801400B
:100A70000FE04FF4FA7001F0D2F920210548FFF79A
:100A80000EFD4FF4FA7001F0CAF920210148FFF77A
:100A900004FDEEE7000C01401FB500220A2121A051
:100AA00000F082FD214908600846006810B120A0CE
:100AB00000F064FC142005214FF48062204BCDE946
:100AC0000032CDE9021000231E4A1FA11F4801F089
:100AD0003BFA1E4801F098FA142002214A021C4BEE
:100AE000CDE90032CDE9021000231A4A1AA11B48B1
:100AF00001F02AFA194801F087FA142003214FF473
:100B00008062174BCDE90032CDE902100023154A6F
:100B100015A1174801F018FA154801F075FA0020E0
:100B200004B010BD6D625F626F636B002C0000202B
:100B3000D3CACFE4B4B4BDA8B3C9B9A60D0A0000A6
:100B4000CC000020710A00086C656400CC04002011
:100B500044050020D10900086B6579004409002094
:100B6000BC090020850B00086D625F72656376002A
:100B7000BC0D002010B5044600F052F9FFF78CFFC1
:100B800010BD000008B510E04FF0FF32694607487D
:100B9000006800F032FD044624B905A0009900F079
:100BA000EDFB02E006A000F0E9FBEDE72C000020E1
:100BB000D3CACFE4C4DAC8DD3A20257300000000B0
:100BC000CAFDBEDDBDD3CAD5CAA7B0DC0D0A000080
:100BD00030B51A4C436824681919884215D04B88DF
:100BE0009BB9174B1B6899420FD0164B1B688B4261
:100BF00001D1144B18604B684360104B1B68C31A3B
:100C00000E4D4C682D682C44A3600C4C83682468FE
:100C10001A19824211D053887BB90A4B1B68834250
:100C200001D1084B1A6043685360044B1B68D31A08
:100C3000024D44682D682C44A36030BD3C00002068
:100C400040000020440000202DE9F04F85B00D4603
:100C50009C46DDE90F740E9B04F04008B8F1000FCC
:100C600002D0DFF8688101E0DFF86481CDF8008010
:100C700004F01008B8F1000F01D024F0010404F0D2
:100C80000108B8F1000F02D04FF0300801E04FF03A
:100C90002008C246002604F00208B8F1000F11D067
:100CA000002A02DA2D2652420CE004F00408B8F1C2
:100CB000000F01D02B2605E004F00808B8F1000F62
:100CC00000D02026002142B94FF0300B8846491C45
:100CD0000DF1040909F808B01DE01AE0E146B9F188
:100CE0000A0F08D14FF00A0BB2FBFBFE0BFB1E28CC
:100CF000B2FBFBF202E002F00F08120900BFDDF8C0
:100D0000009019F808B08846491C0DF1040909F84B
:100D100008B0002AE2D1B94200DD0F46DB1B04F027
:100D20001108B8F1000F10D116B1002B00DD5B1EC9
:100D300006E0A84203D84FF0200880F80080401C4D
:100D4000B3F10008A3F10103F3DC26B1A84201D8F6
:100D500006705B1E401C04F01008B8F1000F0AD1A9
:100D600004E0A84201D880F800A0401CB3F10008BC
:100D7000A3F10103F5DC06E0A84203D84FF03008E8
:100D800080F80080401CB8467F1E8845F4DC08E0EF
:100D9000A84205D80DF1040818F8018080F80080F9
:100DA000401CB1F10008A1F10101F1DC06E0A8420C
:100DB00003D84FF0200880F80080401CB3F10008F1
:100DC000A3F10103F3DC05B0BDE8F08F7D28000836
:100DD0006C2800081CB514200A214FF4007300226F
:100DE000CDE90010044905A000F0F1FF04462046BB
:100DF00001F00AF91CBD0000750B00086D61696EF9
:100E00000000000010B5044C02E020688047241D5B
:100E100002488442F9D310BDA4280008A82800087D
:100E200010B5044C02E020688047241D024884422B
:100E3000F9D310BDA8280008AC28000810B5FFF7AA
:100E4000E5F9044604480088401C00B202490880C5
:100E50002046FFF7DFF910BD9400002010B5FFF722
:100E6000D5F904460B480088401E00B209490880A5
:100E70000846B0F90000002807DC00200880204662
:100E8000FFF7C8F900F05AFD02E02046FFF7C2F96B
:100E900010BD00009400002070B5054605B970BD76
:100EA0001D480068854203D31C480068854200D372
:100EB000F5E7A5F10C044FF0FF31194800F008FEEA
:100EC000608818B12088B0F5F55F08D015A000F053
:100ED00055FA23886288214619A000F04FFA0020B5
:100EE00060804FF4F550208021480068844201D290
:100EF0001F480460084960680968611A401A1D4962
:100F00000968081A1B4908602046FFF761FE04487B
:100F100000F0C1FD00BFC2E73C00002040000020FF
:100F20002C200020746F206672656520612062614C
:100F300064206461746120626C6F636B3A0A000024
:100F40006D656D3A203078253038782C20757365C2
:100F50006420666C61673A2025642C206D616769A6
:100F60006320636F64653A203078253034780A0056
:100F7000440000204C00002000487047340E002040
:100F800000487047341E002070B51E4800684FF4BA
:100F90007A72B0FBF2F1B1F1807F00D31DE021F055
:100FA0007F40401E4FF0E022506150170F22002872
:100FB00007DA13071D0E144B00F00F04241F1D55F4
:100FC00003E013071C0E114B1C5400BF00204FF010
:100FD000E02290610720106100BFFFF763FAFFF77E
:100FE00023FD4FF4E13001F081FBFFF70BFFFFF72A
:100FF000C7FF0446FFF7C0FF0546214600F01EFE6E
:1010000070BD00000000002018ED00E000E400E0EA
:1010100010B50446FFF712FF19E020780A280AD11C
:101020000D210E48FFF726FC00BF40210B48FFF7BB
:10103000A7FB0028F9D014F8011B0848FFF71AFC99
:1010400000BF40210548FFF79BFB0028F9D020781E
:101050000028E2D1FFF702FF10BD00000038014078
:1010600070B505462C1D2E48006838B128462C491D
:1010700009688847064606B970BD00BF29A0E16B24
:1010800000F07CF92BA0216A00F078F92DA0616AAC
:1010900000F074F92FA0A16A00F070F931A0E16AA4
:1010A00000F06CF933A0216800F068F935A06168A0
:1010B00000F064F937A0A16800F060F939A0E16898
:1010C00000F05CF93BA0216900F058F93DA061698E
:1010D00000F054F93FA0A16900F050F941A0E16986
:1010E00000F04CF943A0216B00F048F945A0616B7A
:1010F00000F044F947A0A16B00F040F9287800F017
:10110000040038B100F058FF0646314645A000F013
:1011100035F902E04BA000F031F900BFFEE7000016
:10112000C40000207073723A203078253038780A75
:10113000000000007230303A203078253038780ACC
:10114000000000007230313A203078253038780ABB
:10115000000000007230323A203078253038780AAA
:10116000000000007230333A203078253038780A99
:10117000000000007230343A203078253038780A88
:10118000000000007230353A203078253038780A77
:10119000000000007230363A203078253038780A66
:1011A000000000007230373A203078253038780A55
:1011B000000000007230383A203078253038780A44
:1011C000000000007230393A203078253038780A33
:1011D000000000007231303A203078253038780A2B
:1011E000000000007231313A203078253038780A1A
:1011F000000000007231323A203078253038780A09
:1012000000000000206C723A203078253038780ACF
:10121000000000002070633A203078253038780ACA
:101220000000000068617264206661756C74206F54
:101230006E207468726561643A2025730D0A0D0A88
:101240000000000068617264206661756C74206F34
:101250006E2068616E646C65720D0A0D0A000000F4
:10126000F0B504460D461646301D20F00700403804
:101270000146002203E00C4F41F82270521C102A54
:10128000F9D30D624FF0000CC1F824C0C1F828C09A
:10129000C1F82CC0C1F830C04B638C634FF0807C28
:1012A000C1F83CC0F0BD0000EFBEADDE10B5FEF7EA
:1012B000ADFF044604480078401C034908702046EE
:1012C000FEF7A8FF10BD00003800002010B5FEF7A3
:1012D0009DFF044604480078401E034908702046DC
:1012E000FEF798FF10BD00003800002070B50446DE
:1012F0002068A0F11405284600F040FE002070BDD3
:101300002DE9F04105460C469046204600F092FE3D
:10131000B8F1000F03D0B8F1010F23D105E004F1BB
:101320001401284600F060F81CE02E680FE0A6F1DA
:10133000140794F8350097F83510884206DA04F15E
:10134000140107F1140000F04FF802E03668AE42D5
:10135000EDD100BFAE4204D104F11401284600F0E3
:1013600043F800BF00BF0020BDE8F08110B504467F
:1013700004F1140000F01AF8002010BD0FB438B5C5
:1013800005A800907F210848009B049A00F0EAFF1E
:1013900004467F2C00D97F240348FFF739FE002044
:1013A000009038BC5DF814FBAC1F0020406000606A
:1013B000704740600060704740600060704702689E
:1013C000516002680A6001604860704702685160BD
:1013D00002680A60016048607047026851600268F4
:1013E0000A600160486070474268116042684A6064
:1013F00041600860704701460868884201D10120B9
:1014000070470020FCE701460868884201D10120AE
:1014100070470020FCE7D0E900215160D0E90012BC
:101420001160406000607047D0E900215160D0E950
:101430000012116040600060704700002DE9F0412B
:10144000054615B90020BDE8F081E81C20F0030531
:101450004E480068854201D90020F4E70C2D00D2E7
:101460000C254FF0FF314A4800F032FB4948006834
:1014700049490968461A7EE047480068841960882F
:10148000002874D106F10C006168081AA8426ED3D6
:1014900006F10C006168091A05F11800814230D389
:1014A00006F10C0000EB05083B48006800EB08075C
:1014B0004FF4F55038800020788060687860BE6016
:1014C000C4F80480012060803048796800680C30DE
:1014D000814205D03049786809680844C0F808801E
:1014E0002E48016805F10C0008442C4908602C487E
:1014F00000680968884219D22848006828490860AD
:1015000014E001206080244960680968611A401A6B
:10151000224909680844214908602148006809688F
:10152000884203D21D4800681D4908604FF4F550F9
:10153000208018480068844212D107E015480068EE
:101540004068154909680844124908601148006854
:10155000408828B10F480068124909688842EDD1D7
:101560000B4800F098FA04F10C006CE7FFE70A481A
:1015700000683044466805480068401BB0423FF6AA
:101580007BAF034800F087FA00205CE748000020AA
:101590002C200020440000203C0000204C000020B3
:1015A00050000020400000202DE9F04105460E4685
:1015B00017462946042000F042F9044614B9204693
:1015C000BDE8F08167722046FFF7D0FE2684218CAB
:1015D0008800FFF733FFE061E06920B9204600F0A2
:1015E00053F90020ECE700206084A084E08404F13B
:1015F0002800FFF7DBFE2046E2E72DE9F74304462B
:101600000E46002700F0D8FC0546FEF7FFFD804699
:10161000608C38B9029828B94046FEF7FBFDB81E29
:10162000BDE8FE833AE000202863029830B94046C6
:10163000FEF7F0FD6FF001002863F1E7627A2946BA
:1016400004F11400FFF75CFE029800280CDD00F0A6
:1016500055FD074602AA002105F1440000F0AAFD4D
:1016600005F1440000F0EAFD4046FEF7D3FD00F02E
:1016700065F9286B08B1286BD2E7FEF7C7FD8046F5
:10168000029800280ADD00F039FDC71B0298C01B34
:1016900002900298002801DA00200290608C002855
:1016A000C1D0E18CE06950F821003060E08C401C32
:1016B000E084E08C218C884201DB0020E084608C97
:1016C000401E608404F12800FFF795FE50B904F134
:1016D0002800FFF70BFE4046FEF79CFD00F02EF9B8
:1016E00000209DE74046FEF795FD002098E770B585
:1016F00004460D4600222946204600F001F870BD40
:101700002DE9F74304460E46002700F055FC054638
:10171000FEF77CFD8046608C218C884207D10298C0
:1017200028B94046FEF776FDF81EBDE8FE8339E095
:1017300000202863029828B94046FEF76BFD6FF041
:101740000200F2E7627A294604F12800FFF7D8FD8B
:10175000029800280CDD00F0D1FC074602AA002107
:1017600005F1440000F026FD05F1440000F066FD9F
:101770004046FEF74FFD00F0E1F8286B08B1286BFA
:10178000D3E7FEF743FD8046029800280ADD00F00B
:10179000B5FCC71B0298C01B02900298002801DA12
:1017A00000200290608C218C8842C1D0A18CE0691D
:1017B00040F82160A08C401CA084A08C218C884221
:1017C00001DB0020A084608C401C608404F11400C4
:1017D000FFF711FE50B904F11400FFF787FD4046F2
:1017E000FEF718FD00F0AAF800209EE74046FEF73D
:1017F00011FD002099E7F0B50C460546E6B2042A33
:1018000015D300F0030797B9014646EA062343EAD9
:10181000034304E008C108C108C108C1103A102AF6
:10182000F8D201E008C1121F042AFBD20D4601E0E4
:1018300005F8016B171EA2F10102F9D1F0BD2DE9E7
:10184000F04105460F46284600F03CF80646F06891
:10185000FFF7F4FD044614B90020BDE8F0812572BD
:101860000020607208223946204600F0CCF9FEF7CD
:10187000CDFC804604F10C01301DFFF7A0FD404671
:10188000FEF7C8FC2046E8E770B50446FEF7BEFC4C
:10189000054604F10C00FFF7BEFD2846FEF7BAFC32
:1018A0002046FFF7F9FA70BD70B50446FEF7AEFCAE
:1018B000054604F10C00FFF7AEFD2846FEF7AAFC32
:1018C00070BD0000024600210AE0074800EB01104D
:1018D0000078904203D1044800EB01107047491C86
:1018E0000429F2DB0020F9E7540000202DE9F04143
:1018F00004460D4616462846FFF7E4FF074645F026
:101900008000207208223146204600F07CF9FEF764
:101910007DFC804604F10C01381DFFF750FD404668
:10192000FEF778FCBDE8F0810146087A00F08000FF
:1019300008B1012070470020FCE700002DE9F041CC
:10194000FEF764FC07461B48008868BB1A4800681D
:10195000FEF794FF461E194850F83600A0F1140413
:101960001748006884421BD016490E701448056859
:1019700004601548007848B904F11C0105F11C0009
:10198000FEF74BFC3846FEF745FC0CE004F11C0169
:1019900005F11C00FEF741FC3846FEF73BFC02E077
:1019A0003846FEF737FC02E03846FEF733FCBDE868
:1019B000F081000094000020A00000204C200020B6
:1019C000980000209C0000203800002070B50446DC
:1019D000FEF71CFC054614F8340F20F00F0040F011
:1019E000010020706278343C0A4B03EBC20004F122
:1019F00014014268116042684A604160086000BF9B
:101A00000549A06B09680843034908602846FEF7AA
:101A100001FC70BD4C200020A000002070B50446E1
:101A2000FEF7F4FB054604F11400D0E900215160F3
:101A3000D0E9001211604060006000BF94F83510DA
:101A4000094A02EBC1000168814201D1012100E095
:101A5000002129B10548A16B00688843034908604B
:101A60002846FEF7D7FB70BD4C200020A0000020C8
:101A70002DE9F04104460D4616461F462A4601212F
:101A80002046FFF733FF2046FFF770FCA6836772FE
:101A90000020BDE8F08170B504460025FEF7B6FBD6
:101AA000064604F11400FFF7A6FC28B904F114005F
:101AB000FFF71CFC012502E0A08B401CA0833046F0
:101AC000FEF7A8FB012D01D1FFF738FF002070BD04
:101AD00073B50546FEF79AFB0646A88B002806DD7F
:101AE000A88B401EA8833046FEF794FB28E001989F
:101AF00028B93046FEF78EFB6FF001007CBD00F088
:101B00005BFA0446002020636A7A214605F114003E
:101B1000FFF7F6FB0198002809DD01AA002104F176
:101B2000440000F047FB04F1440000F087FB30461E
:101B3000FEF770FBFFF702FF206B08B1206BDDE7BB
:101B40000020DBE708B509A0FFF718FC0AA0FFF7A3
:101B500015FC12A0032300221946009012A0FFF7E3
:101B60000DFC19A0FFF70AFC08BD00000A205C204C
:101B70007C202F0A000000002D205254202D202010
:101B8000202020546872656164204F706572617412
:101B9000696E672053797374656D0A004D61792011
:101BA0002037203230313900202F207C205C20204B
:101BB00020202025642E25642E2564206275696C02
:101BC000642025730A0000002032303036202D209A
:101BD0003230313820436F707972696768742062DF
:101BE000792072742D746872656164207465616D0A
:101BF0000A00000001460A4600E0521C1078002846
:101C0000FBD1501A704770B50346A2B118460C4676
:101C100000BF14F8016B00F8016B3EB902E000252B
:101C200000F8015B551E2A1EF9D102E0551E2A1E3E
:101C3000EFD100BF00BF184670BD00002DE9F04194
:101C400005460E46E81C20F0030726F00308B8F10D
:101C5000180F09D9A8F11800B84205D3A8EB07005E
:101C600018381E49086006E0324629461CA0FFF7D6
:101C700085FBBDE8F0812948076004684FF4F55002
:101C80002080164800680C3060600020A0606080F2
:101C90002249606809680844214908604FF4F550FA
:101CA0000968088001201E49096848800B480068BF
:101CB0000C301B4909684860084800680C30184916
:101CC000096888600023012216A11848FFF7D0FE9A
:101CD000124800681649086000BFCAE748000020A3
:101CE0006D656D20696E69742C206572726F72204B
:101CF000626567696E206164647265737320307811
:101D000025782C20616E6420656E642061646472A5
:101D100065737320307825780A0000003C000020AD
:101D20004000002068656170000000002C20002049
:101D30004400002010B500200B490880002405E075
:101D40000A4901EBC400FFF734FB641C202CF7DBCD
:101D50001F200749087000200649086006490860EE
:101D60000648FFF726FB10BD940000204C20002001
:101D70009C00002098000020A0000020A40000206B
:101D800070B508480068FEF779FD451E064850F812
:101D90003500A0F114040548046004F11C00FEF7AE
:101DA0006AFA70BDA00000204C200020980000209E
:101DB00010B5002405E0044901EBC400FFF7FCFA6C
:101DC000641C002CF7D010BDAC00002070472DE93A
:101DD000FF5F06460F4690461D46DDE90EAB3146D5
:101DE0000020FFF72CFD8146B9F1000F03D1002040
:101DF00004B0BDE8F09F2846FFF720FB044624B955
:101E00004846FFF741FD0020F2E743463A46314697
:101E100048468DE8300CFEF761FD4846E8E710B50E
:101E20000446204600F0CEF810BD000070B5124800
:101E30000468FEF7EBF905462046FFF7EFFD0420A6
:101E400084F8340004F1440000F0D0F92046FFF794
:101E50006BFD012805D1206F18B92046FFF724FD3E
:101E600004E004F114010548FFF7B0FA2846FEF734
:101E7000D1F9FFF763FD70BD98000020A400002099
:101E800001E000F001F8FCE770B537E0FEF7BEF9BD
:101E90000546FEF719FD18B31B480068A0F11404AD
:101EA00004F11400D0E900215160D0E90012116062
:101EB0004060006000BFFEF7C1FF206F10B12046F8
:101EC000216F88472046FFF72FFD012805D1FEF737
:101ED000C5FF2846FEF79EF970BDFEF7BFFF03E081
:101EE0002846FEF797F9F7E72846FEF793F9A06A28
:101EF000FEF7D2FF2046FFF7C7FC00BFFEF7E4FC69
:101F00000028C3D100BFE7E7A40000201FB52020B0
:101F10001F21C200074BCDE90032CDE9021000239A
:101F2000054A06A1074800F00FF8064800F06CF8D3
:101F30001FBD0000AC1E0020811E00087469646C87
:101F400065000000341E00202DE9FF5F05460C46A9
:101F500016461F46DDE910ABDDE90E892246002159
:101F60002846FFF7C3FC3B463246214628468DE80B
:101F7000000FFEF7B3FC04B0BDE8F09F70B5044657
:101F800094F8340000F00F00022802D04FF0FF3028
:101F900070BDFEF73BF9054604F11400FFF744FA63
:101FA00004F1440000F0C6F92846FEF733F9204654
:101FB000FFF70CFD0020EBE70148006870470000C8
:101FC0009800002031B5FEF721F905460D48046858
:101FD000204600F02FF86A46002104F1440000F08A
:101FE000E9F804F1440000F029F92846FEF712F957
:101FF000FFF7A4FC206B801C08B9002020630020A0
:1020000038BD00009800002010B504463434A07894
:1020100060706178012088406060022004F8340913
:102020002046FFF7ABFFFFF7C7FF08B1FFF786FCBD
:10203000002010BD70B5044694F8340000F00F0085
:10204000012802D04FF0FF3070BDFEF7DFF80546E3
:1020500094F8340020F00F0040F0020084F83400BF
:102060002046FFF7DBFC04F1440000F063F928464A
:10207000FEF7D0F80020E7E770B5044625466FF07C
:102080000100286305F11400FFF7CEF92846FFF799
:102090009DFCFFF753FC70BD70B5FEF7B7F8054621
:1020A0001448046894F8340000F00F0001281CD193
:1020B000D4E90510814218D004F11400FFF7B4F9F7
:1020C00094F835200C4B03EBC20004F11401426874
:1020D000116042684A604160086000BF2846FEF710
:1020E00099F8FFF72BFC002070BD2846FEF792F808
:1020F0000020F9E7980000204C20002001480068EB
:10210000704700003400002010B50A480068401CE9
:1021100008490860FFF750FF0446206C401E206409
:10212000206C18B9E06B2064FFF7B6FF00F004F8EC
:1021300010BD00003400002070B5FFF7DFFF05463A
:10214000FEF764F8064628E019480068A0F1140478
:10215000A06A281A6FF0004188421DD22046FEF77F
:1021600020FCD4E907108847FFF7C8FF0546607ACE
:1021700000F0020058B1607A00F0010038B1607AD6
:1021800020F001006072204600F058F805E0607A07
:1021900020F00100607200E004E00548FFF733F929
:1021A0000028D1D000BF3046FEF734F870BD0000E3
:1021B000AC000020034649B1012904D0022908D00F
:1021C000032910D10AE0586A10600CE010685862C8
:1021D00009E0587A20F00200587204E0587A40F082
:1021E0000200587200BF00BF0020704770B504465F
:1021F000FEF70CF805462046FEF7D3FB2846FEF70F
:1022000009F82046FFF750FB002070BD2DE9F84388
:1022100007460C4615461E46DDE908892246092177
:102220003846FFF763FB4346324629463846CDF829
:102230000090FEF795FBBDE8F88300002DE9F84318
:102240000546FDF7E3FF80462846FEF7AAFB687ABD
:1022500020F0010068724046FDF7DCFFFFF74EFFFB
:10226000696A0844A862FDF7D1FF80462F4F0097A6
:1022700000242AE019E05DF824201168142202EB02
:10228000C402881A826AAB6AD21A00D108E0826A54
:10229000AB6AD21A6FF000439A4200D20CE000BF42
:1022A0005DF8240000684DF824005DF8240007EB79
:1022B000C40149688842DED100BF2CB15DF824001A
:1022C0000830611C4DF82100641C002CD2D0184845
:1022D0000068401C164908600846066805F11401AC
:1022E0000098FFF77AF8022412E006F0030060B9C4
:1022F000C4F1010305F1140202EBC301C4F10102B0
:102300005DF82200FFF769F800E003E0B608641CFE
:10231000012CEAD900BF687A40F00100687240469B
:10232000FDF778FF0020BDE8F8830000AC00002036
:10233000B400002070B50446607A00F0010010B9C6
:102340004FF0FF3070BDFDF761FF05462046FEF7F8
:1023500028FB2846FDF75EFF607A20F001006072DE
:102360000020EFE72DE9FF4F89B0804644460A98E8
:102370004044461E464504D24FF0FF36A6EB080007
:102380000A906FE10B980078252806D0B44202D855
:102390000B9800782070641C61E1002526E00B9802
:1023A000401C0B900B9800782D2802D145F01005A9
:1023B0001CE00B9800782B2802D145F0040515E0AD
:1023C0000B980078202802D145F008050EE00B9804
:1023D0000078232802D145F0200507E00B9800780B
:1023E000302802D145F0010500E000E0D7E700BF4A
:1023F0004FF0FF370B98007830380A2804D20BA82A
:1024000000F061F907460EE00B9800782A280AD1FF
:102410000B98401C0B900C9880C80C90002F02DA8F
:102420007F4245F010054FF0FF390B9800782E28B9
:102430001CD10B98401C0B900B98007830380A2860
:1024400004D20BA800F03FF981460AE00B9800780F
:102450002A2806D10B98401C0B900C9850F8049B2E
:102460000C90B9F1000F01DA4FF000090020049040
:102470000B980078682803D00B9800786C2805D159
:102480000B98007804900B98401C0B900A20059044
:102490000B9800786F2875D00CDC632813D004DC0F
:1024A000252870D058286FD18DE064286DD0692818
:1024B000F9D18FE070286AD0732825D0752878D09C
:1024C0007828F0D182E005F0100040B904E0B44271
:1024D00001D820202070641C781E071EF7DC0C98A1
:1024E00010F8041B0C90C8B20790B44201D80798AA
:1024F0002070641C04E0B44201D820202070641CC9
:10250000781E071EF7DCAAE00C98006806900C986D
:10251000001D0C90069808B95AA006900698FFF77F
:1025200069FB8346B9F1000F02DDCB4500DDCB46E8
:1025300005F0100048B904E0B44201D82020207012
:10254000641C38467F1E5845F6DC002008900BE0DE
:10255000B44202D8069800782070641C0698401C8B
:1025600006900898401C089008985845F0DB04E055
:10257000B44201D820202070641C38467F1E584584
:10258000F6DC6CE01CE015E028E022E0FFE7781CB8
:1025900010B9082745F00105CDE9007902950C989E
:1025A00004C8102331460C902046FEF74DFB04462C
:1025B00055E012E0B44201D825202070641C4EE0A2
:1025C000082005901DE045F0400500BF1020059053
:1025D00017E000BF45F0020500BF12E0B44201D889
:1025E00025202070641C0B98007830B1B44202D8CA
:1025F0000B9800782070641C02E00B98401E0B9032
:102600002DE000BF04986C2807D10C9850F804AB5B
:102610000C9005F00200B8B116E0049868280BD1C0
:102620000C9830F8041B1FFA81FA0C9005F0020098
:1026300050B10FFA8AFA07E00C9850F804AB0C90EE
:1026400005F0020000B100BFCDE9007902955246C5
:1026500031462046059BFEF7F7FA044600BF0B986B
:10266000401C0B900B98007800287FF48BAEB4428E
:1026700001D8207001E000203070A4EB08000DB0FC
:10268000BDE8F08F284E554C4C29000000207047C3
:1026900000207047002070470020704710B5FDF7FC
:1026A000B5FDFEF771FCFFF74DFAFFF781FBFFF771
:1026B00041FBFEF78FFBFFF789FBFFF727FCFFF7D6
:1026C0005FFB002010BD0146002009E00B685A1C8A
:1026D0000A601A7800EB800302EB4302A2F130009B
:1026E0000A681278303A0A2AF0D3704710B586B0DB
:1026F000044601210420FDF711FF01218803FDF7A5
:102700000DFF4FF40070ADF8040003208DF80600B3
:1027100018208DF8070001A91248FDF733FE4FF489
:102720008060ADF8040004208DF8070001A90D4871
:10273000FDF728FE02940020ADF814000C20ADF83F
:1027400012000020ADF81000ADF80E00ADF80C003E
:1027500002A90548FEF722F801210348FEF704F814
:1027600006B010BD00080140003801400000010023
:10277000020001000300010002000100040001004A
:102780000200010003000100020001000500010039
:10279000020001000300010002000100040001002A
:1027A0000200010003000100020001000600010018
:1027B000020001000300010002000100040001000A
:1027C00002000100030001000200010005000100F9
:1027D00002000100030001000200010004000100EA
:1027E00002000100030001000200010007000100D7
:1027F00002000100030001000200010004000100CA
:1028000002000100030001000200010005000100B8
:1028100002000100030001000200010004000100A9
:102820000200010003000100020001000600010097
:102830000200010003000100020001000400010089
:102840000200010003000100020001000500010078
:102850000200010003000100020001000400010069
:102860000200010003000100020001003031323398
:102870003435363738396162636465660030313229
:102880003334353637383941424344454600000039
:10289000D3CACFE4B2E2CAD4CAB5D1E90D0A000066
:1028A00099260008912600088D2600089526000824
:1028B000D028000800000020CC0000006C010008B7
:1028C0009C290008CC000020E426000088010008B4
:1028D00000A24A04000000000000000001020304FE
:1028E00006070809000000000102030401020304B6
:1028F00006070809020406080000000000000000A6
:102900009028000800000000000000000000000007
:1029100000000000000000000000000000000000B7
:1029200000000000000000005800002058000020B7
:10293000780000000100000068000020680000200E
:102940002000000004000000780000207800002033
:1029500030000000090000008800002088000020EE
:102960002C0000000000000000000000000000003B
:102970000000000000000000000000000000000057
:102980000000000000000000000000000000000047
:0C2990000000000000000000010000003A
:0400000508000131BD
:00000001FF
