:020000040800F2
:10000000F0140020CD010008D5010008B30200085B
:10001000D9010008DB010008DD0100080000000034
:10002000000000000000000000000000DF010008E8
:10003000E1010008000000003B020008F90600088A
:10004000E7010008E7010008E7010008E7010008F0
:10005000E7010008E7010008E7010008E7010008E0
:10006000E7010008E7010008E7010008E7010008D0
:10007000E7010008E7010008E7010008E7010008C0
:10008000E7010008E7010008E7010008E7010008B0
:10009000E7010008E7010008E7010008E7010008A0
:1000A000E7010008E7010008E7010008E701000890
:1000B000E7010008E7010008E7010008E701000880
:1000C000E7010008E7010008E7010008E701000870
:1000D000E7010008E7010008E7010008E701000860
:1000E000E7010008E7010008E7010008E701000850
:1000F000E7010008E7010008E7010008E701000840
:10010000E7010008E7010008E7010008E70100082F
:10011000E7010008E7010008E7010008E70100081F
:10012000E7010008E7010008E7010008E70100080F
:1001300000F002F800F03AF80AA090E8000C8244BF
:100140008344AAF10107DA4501D100F02FF8AFF29C
:10015000090EBAE80F0013F0010F18BFFB1A43F0A5
:1001600001031847481E0000681E0000103A24BF13
:1001700078C878C1FAD8520724BF30C830C144BF0C
:1001800004680C607047000000230024002500264E
:10019000103A28BF78C1FBD8520728BF30C148BFEA
:1001A0000B6070471FB51FBD10B510BD00F0A9F85A
:1001B0001146FFF7F7FF00F0DEF800F0C7F803B4D0
:1001C000FFF7F2FF03BC00F0CFF8000009488047BA
:1001D00009480047FEE7FEE7FEE7FEE7FEE7FEE729
:1001E000FEE7FEE7FEE7FEE704480549054A064B41
:1001F000704700000907000831010008F00E0020D8
:10020000F0140020F0100020F0100020EFF3108018
:1002100072B6704780F310887047324A1368012B1A
:1002200004D04FF0010313602F4A10602F4A116071
:100230002F484FF0805101607047EFF3108272B683
:100240002848016891B14FF000010160264801681B
:1002500029B1EFF3098121E9F00F0068016023491A
:1002600009680968B1E8F00F81F3098882F3108802
:100270004EF0040E70471D4908601B494FF0000006
:10028000086018494FF0010008601A484FF47F01D8
:10029000D0F8002041EA0201016015484FF080517A
:1002A000016015480068006880F3088861B662B68E
:1002B00070471EF0040F14BFEFF30880EFF30980BE
:1002C00020E9F00F40F804ED14BF80F3088880F3B4
:1002D000098800B500F0D0FD5DF804EB4EF0040E87
:1002E00070470000A0000020980000209C00002023
:1002F00004ED00E020ED00E008ED00E070477047FD
:100300007047754600F02CF8AE4605006946534626
:1003100020F00700854618B020B5FFF765FFBDE85F
:1003200020404FF000064FF000074FF000084FF05C
:10033000000B21F00701AC46ACE8C009ACE8C009ED
:10034000ACE8C009ACE8C0098D46704710B504465A
:10035000AFF300802046BDE81040FFF730BF00003B
:1003600000487047900E002001491820ABBEFEE700
:1003700026000200704710B5FFF748FF01F014FD9A
:10038000002010BD2DE9F041024600250026002086
:1003900000230024002791F803C00CF00F0591F80A
:1003A00003C00CF0100CBCF1000F03D091F802C098
:1003B0004CEA050591F800C0BCF1000F31D014687B
:1003C00000202BE04FF0010C0CFA00F3B1F800C054
:1003D0000CEA03069E4220D183004FF00F0C0CFA6A
:1003E00003F7BC4305FA03FC4CEA040491F803C08C
:1003F000BCF1280F06D14FF0010C0CFA00FCC2F83A
:1004000014C00AE091F803C0BCF1480F05D14FF0C9
:10041000010C0CFA00FCC2F810C0401C0828D1D313
:100420001460B1F800C0BCF1FF0F34DD5468002047
:100430002EE000F1080C4FF0010808FA0CF3B1F8B7
:1004400000C00CEA03069E4221D183004FF00F0C3E
:100450000CFA03F7BC4305FA03FC4CEA040491F8D8
:1004600003C0BCF1280F05D100F1080C08FA0CF804
:10047000C2F8148091F803C0BCF1480F07D100F115
:10048000080C4FF0010808FA0CF8C2F81080401C64
:100490000828CED35460BDE8F08141617047016106
:1004A0007047000008B50121042000F037F828202B
:1004B0008DF803000120ADF8000003208DF8020044
:1004C00069460248FFF75EFF08BD000000080140D2
:1004D000014611B101200F4A10700E48007870B12A
:1004E0000D48006800F0010048B10020094A107072
:1004F0000948006800F0010048B101207047064833
:10050000006800F0010010B90120024A10700020BC
:10051000F4E70000A80000200808014029B1064ABD
:1005200092690243044B9A6104E0034A9269824350
:10053000014B9A61704700000010024030B5002165
:100540000022002400232D4D6D6805F00C0121B11F
:10055000042905D0082923D105E0294D056022E0B2
:10056000274D05601FE0254D6D6805F47012234D81
:100570006D6805F48034022505EB92421CB9214DCB
:10058000554305600BE01D4D6D6805F400351DB148
:100590001C4D5543056002E0194D5543056002E0CE
:1005A000174D056000BF00BF144D6D6805F0F001E8
:1005B0000909154D6B5C0568DD4045600F4D6D68A0
:1005C00005F4E061090A104D6B5C4568DD4085600B
:1005D0000A4D6D6805F46051C90A0B4D6B5C4568A6
:1005E000DD40C560054D6D6805F44041890B074D40
:1005F0006B5CC568B5FBF3F5056130BD00100240CA
:1006000000127A0000093D001400002024000020A0
:1006100010B500F001F810BD0CB50020019000905D
:100620003348006840F480303149086000BF3048EA
:10063000006800F4003000900198401C0190009880
:1006400018B90198B0F5A06FF1D12948006800F4FD
:10065000003010B10120009001E0002000900098CF
:10066000012843D12348006840F010002149086068
:100670000846006820F0030008600846006840F063
:10068000020008601A4840681949486008464068F6
:1006900048600846406840F480604860084640680A
:1006A00020F47C1048600846406840F4E810486038
:1006B0000846006840F08070086000BF0C48006881
:1006C00000F000700028F9D00948406820F00300CD
:1006D000074948600846406840F00200486000BF93
:1006E0000348406800F00C000828F9D10CBD000058
:1006F000001002400020024010B500F0E3FC01F0C1
:1007000089F800F0EFFC10BD10B51348006840F008
:1007100001001149086008464068104908400E4928
:100720004860084600680E4908400B4908600846C2
:10073000006820F4802008600846406820F4FE002D
:1007400048604FF41F008860FFF762FF4FF00060C1
:100750000449086010BD0000001002400000FFF8CE
:10076000FFFFF6FE08ED00E021B1828942F400525D
:10077000828104E082894DF6FF731A4082817047BE
:1007800002460020B1F5007F00D100BF13880B4066
:100790000BB1012000E00020704700002DE9F04778
:1007A00086B005460E460024A24600BFA14600279B
:1007B000B08900B100BF2F462C8A4CF6FF70044070
:1007C000F08804432C82AC894EF6F3100440B088C4
:1007D00031890843718908430443AC81AC8A4FF6E0
:1007E000FF400440B0890443AC8201A8FFF7A6FE95
:1007F0001F48874202D1DDF810A001E0DDF80CA00F
:10080000A88900F4004040B10AEBCA0000EB0A10CE
:1008100031684900B0FBF1F807E00AEBCA0000EBD1
:100820000A1031688900B0FBF1F86420B8FBF0F0E1
:1008300004012009642101FB1089A88900F400400B
:1008400040B1322000EBC900B0FBF1F000F007002E
:10085000044308E0322000EB09106421B0FBF1F002
:1008600000F00F0004432C8106B0BDE8F0870000C3
:1008700000380140C1F3080282807047014609B97F
:1008800000207047C8B220B1C8B20E4A105C401CAC
:10089000F7E701F47F4028B10A48C1F30722805CE2
:1008A0000930EEE701F47F0028B10648C1F30742A2
:1008B000805C1130E5E7034800EB116000781930E7
:1008C000DFE70000781E000803490868884201D06D
:1008D000012070470020FCE7840000202DE9FC5F28
:1008E00004468B4615461E46DDE90C9ADDE90E7876
:1008F00004F114004060006000BF1C346560A66015
:10090000C4F80C90C4F810A02321D4E9030200F02D
:1009100036FCD4E9033C63441A1F0F4BD4E90101B0
:1009200000F0AAFB2060A77667760020E061C4F89B
:100930002080C4F82480606120766065A0651C3C3E
:1009400000902346054A2146019004F1440000F03E
:10095000E3FF0020BDE8FC9F45150008851700084F
:100960002DE9F04704460E4617469846DDF82090DC
:1009700084F80990607A20F001006072E6612762D5
:100980000020A062C4F82480002506E004F11401D0
:1009900001EBC50000F0D1FB6D1C012DF6DBBDE8BD
:1009A000F08710B50246002001460EE002F1140364
:1009B00003EBC100D0E900436360D0E90034236059
:1009C0004060006000BF481C01460129EEDB10BDFD
:1009D0001FE00020FFF77CFDC0B10E480078C04347
:1009E0000C4908700846007840B10B4800F0A8FE9A
:1009F00004465CB909A000F085FB07E0064800F05A
:100A000043FE044614B90AA000F07CFB052000F068
:100A100092FDDEE728000020AC040020B9D2C6F029
:100A20004C454431CFDFB3CCB3C9B9A6A3A10A006A
:100A3000BBD6B8B44C454431CFDFB3CCB3C9B9A6AB
:100A4000A3A10A0008B501214820FFF767FD102087
:100A50008DF803002020ADF8000003208DF802007F
:100A600069460848FFF78EFC20210648FFF717FD6E
:100A700069460548FFF786FC20210348FFF70FFD74
:100A800008BD0000000C01400018014015E04FF4C3
:100A9000FA7000F050FD09A000F034FB20210A4854
:100AA000FFF7FDFC4FF4FA7000F045FD07A000F0E1
:100AB00029FB20210448FFF7F0FCE8E76F66662079
:100AC000206C65640A000000000C01406F6E206C11
:100AD00065640A001FB5142003214FF48062114B96
:100AE000CDE90032CDE9021000230F4A0FA11048D2
:100AF00000F0B0FD0E4800F00DFE142002214A0265
:100B00000C4BCDE90032CDE9021000230A4A0BA1BB
:100B10000B4800F09FFD0A4800F0FCFD002004B0E7
:100B200010BD0000AC0000208D0A00086C65640058
:100B3000AC04002024050020D10900086B65790071
:100B40002409002010B5044600F0F8F8FFF7C2FFB2
:100B500010BD00002DE9F04F85B00D469C46DDE943
:100B60000F740E9B04F04008B8F1000F02D0DFF8BC
:100B7000688101E0DFF86481CDF8008004F010089E
:100B8000B8F1000F01D024F0010404F00108B8F11D
:100B9000000F02D04FF0300801E04FF02008C246AD
:100BA000002604F00208B8F1000F11D0002A02DA82
:100BB0002D2652420CE004F00408B8F1000F01D0D9
:100BC0002B2605E004F00808B8F1000F00D020261D
:100BD000002142B94FF0300B8846491C0DF1040941
:100BE00009F808B01DE01AE0E146B9F10A0F08D192
:100BF0004FF00A0BB2FBFBFE0BFB1E28B2FBFBF215
:100C000002E002F00F08120900BFDDF8009019F8A9
:100C100008B08846491C0DF1040909F808B0002AFB
:100C2000E2D1B94200DD0F46DB1B04F01108B8F138
:100C3000000F10D116B1002B00DD5B1E06E0A842AC
:100C400003D84FF0200880F80080401CB3F1000862
:100C5000A3F10103F3DC26B1A84201D806705B1EA4
:100C6000401C04F01008B8F1000F0AD104E0A842BB
:100C700001D880F800A0401CB3F10008A3F10103E3
:100C8000F5DC06E0A84203D84FF0300880F8008079
:100C9000401CB8467F1E8845F4DC08E0A84205D811
:100CA0000DF1040818F8018080F80080401CB1F1B3
:100CB0000008A1F10101F1DC06E0A84203D84FF0E1
:100CC000200880F80080401CB3F10008A3F1010364
:100CD000F3DC05B0BDE8F08F891F0008781F00081D
:100CE0007FB50A4C14200A214FF40072084BCDE95D
:100CF0000032CDE902100023064A07A1204600F089
:100D0000A9FC0546204600F005FD7FBDA00B002094
:100D1000A0090020450B00086D61696E000000000D
:100D200010B5044C02E020688047241D024884422C
:100D3000F9D310BDA01F0008A41F000810B5044C73
:100D400002E020688047241D02488442F9D310BD88
:100D5000A41F0008A81F000810B5FFF757FA0446A3
:100D600004480088401C00B2024908802046FFF772
:100D700051FA10BD7400002010B5FFF747FA044681
:100D80000B480088401E00B2094908800846B0F9A7
:100D90000000002807DC002008802046FFF73AFA10
:100DA00000F066FA02E02046FFF734FA10BD0000BA
:100DB0007400002070B5194800684FF47A72B0FBD7
:100DC000F2F1B1F1807F00D31DE021F07F40401EA1
:100DD0004FF0E022506150170F22002807DA130766
:100DE0001D0E0F4B00F00F04241F1D5503E01307C9
:100DF0001C0E0C4B1C5400BF00204FF0E0229061F1
:100E00000720106100BFFFF74DFBFFF71BFE4FF4FB
:100E1000E13000F0F1FFFFF783FF70BD000000201C
:100E200018ED00E000E400E010B50446FFF794FF81
:100E300019E020780A280AD10D210E48FFF71AFD83
:100E400000BF40210B48FFF79BFC0028F9D014F8A5
:100E5000011B0848FFF70EFD00BF40210548FFF7C2
:100E60008FFC0028F9D020780028E2D1FFF784FF1A
:100E700010BD00000038014070B505462C1D2E48FD
:100E8000006838B128462C4909688847064606B9E3
:100E900070BD00BF29A0E16B00F034F92BA0216ADE
:100EA00000F030F92DA0616A00F02CF92FA0A16AA2
:100EB00000F028F931A0E16A00F024F933A021689C
:100EC00000F020F935A0616800F01CF937A0A16896
:100ED00000F018F939A0E16800F014F93BA021698D
:100EE00000F010F93DA0616900F00CF93FA0A16984
:100EF00000F008F941A0E16900F004F943A0216B7A
:100F000000F000F945A0616B00F0FCF847A0A16B70
:100F100000F0F8F8287800F0040038B100F0D2FBB7
:100F20000646314645A000F0EDF802E04BA000F087
:100F3000E9F800BFFEE70000A40000207073723AD9
:100F4000203078253038780A000000007230303ABE
:100F5000203078253038780A000000007230313AAD
:100F6000203078253038780A000000007230323A9C
:100F7000203078253038780A000000007230333A8B
:100F8000203078253038780A000000007230343A7A
:100F9000203078253038780A000000007230353A69
:100FA000203078253038780A000000007230363A58
:100FB000203078253038780A000000007230373A47
:100FC000203078253038780A000000007230383A36
:100FD000203078253038780A000000007230393A25
:100FE000203078253038780A000000007231303A1D
:100FF000203078253038780A000000007231313A0C
:10100000203078253038780A000000007231323AFA
:10101000203078253038780A00000000206C723AC1
:10102000203078253038780A000000002070633ABC
:10103000203078253038780A00000000686172643A
:10104000206661756C74206F6E20746872656164CF
:101050003A2025730D0A0D0A0000000068617264D1
:10106000206661756C74206F6E2068616E646C65BB
:10107000720D0A0D0A000000F0B504460D46164632
:10108000301D20F0070040380146002203E00C4FDD
:1010900041F82270521C102AF9D30D624FF0000C57
:1010A000C1F824C0C1F828C0C1F82CC0C1F830C0B4
:1010B0004B638C634FF0807CC1F83CC0F0BD0000F6
:1010C000EFBEADDE10B5FFF7A1F804460448007886
:1010D000401C034908702046FFF79CF810BD000033
:1010E0003000002010B5FFF791F80446044800785E
:1010F000401E034908702046FFF78CF810BD000021
:10110000300000200FB438B505A800907F210848B2
:10111000009B049A00F0ACFC04467F2C00D97F248D
:101120000348FFF781FE0020009038BC5DF814FBF7
:10113000100D002040600060704740600060704704
:101140000268516002680A60016048607047026886
:10115000516002680A600160486070470146086893
:10116000884201D1012070470020FCE7D0E900212E
:101170005160D0E900121160406000607047F0B526
:101180000C460546E6B2042A15D300F0030797B9CA
:10119000014646EA062343EA034304E008C108C1C6
:1011A00008C108C1103A102AF8D201E008C1121F84
:1011B000042AFBD20D4601E005F8016B171EA2F1CF
:1011C0000102F9D1F0BD70B50446FFF71FF80546DE
:1011D00004F10C00D0E900215160D0E90012116047
:1011E0004060006000BF2846FFF714F870BD0000A3
:1011F000024600210AE0074800EB01100078904207
:1012000003D1044800EB01107047491C0429F2DBAC
:101210000020F9E7340000202DE9F04104460D4696
:1012200016462846FFF7E4FF074645F08000207287
:1012300008223146204600F016F9FEF7E7FF804607
:10124000381D04F10C010268516002680A600160F7
:10125000486000BF4046FEF7DDFFBDE8F081014673
:10126000087A00F0800008B1012070470020FCE7F8
:101270002DE9F041FEF7CAFF07461B48008868BB0E
:101280001A480068FFF7FAFA461E194850F8360067
:10129000A0F114041748006884421BD016490E7050
:1012A0001448056804601548007848B904F11C0129
:1012B00005F11C00FEF7B1FF3846FEF7ABFF0CE06E
:1012C00004F11C0105F11C00FEF7A7FF3846FEF7EC
:1012D000A1FF02E03846FEF79DFF02E03846FEF728
:1012E00099FFBDE8F081000074000020800000201C
:1012F000900D0020780000207C00002030000020AD
:1013000070B50446FEF782FF054614F8340F20F04E
:101310000F0040F0010020706278343C0A4B03EB70
:10132000C20004F114014268116042684A604160E1
:10133000086000BF0549A06B0968084303490860BD
:101340002846FEF767FF70BD900D0020800000204A
:1013500070B50446FEF75AFF054604F11400D0E9C3
:1013600000215160D0E9001211604060006000BFB0
:1013700094F83510094A02EBC1000168814201D19D
:10138000012100E0002129B10548A16B00688843D4
:10139000034908602846FEF73DFF70BD900D002010
:1013A0008000002008B509A0FFF7ACFE0AA0FFF7F7
:1013B000A9FE12A0032300221946009012A0FFF7F5
:1013C000A1FE19A0FFF79EFE08BD00000A205C20C8
:1013D0007C202F0A000000002D205254202D2020B8
:1013E000202020546872656164204F7065726174BA
:1013F000696E672053797374656D0A0041707220BD
:101400003136203230313900202F207C205C2020E2
:1014100020202025642E25642E2564206275696CA9
:10142000642025730A0000002032303036202D2041
:101430003230313820436F70797269676874206286
:10144000792072742D746872656164207465616DB1
:101450000A00000001460A4600E0521C10780028ED
:10146000FBD1501A704770B50346A2B118460C461E
:1014700000BF14F8016B00F8016B3EB902E00025D3
:1014800000F8015B551E2A1EF9D102E0551E2A1EE6
:10149000EFD100BF00BF184670BD000010B500209E
:1014A0000B490880002405E00A4901EBC400FFF75E
:1014B00041FE641C202CF7DB1F2007490870002028
:1014C00006490860064908600648FFF733FE10BD6C
:1014D00074000020900D00207C0000207800002087
:1014E000800000208400002070B508480068FFF7E5
:1014F000C5F9451E064850F83500A0F1140405480A
:10150000046004F11C00FEF7B6FE70BD80000020F0
:10151000900D00207800002010B5002405E004495B
:1015200001EBC400FFF709FE641C002CF7D010BDCE
:101530008C000020704710B50446204600F0C8F823
:1015400010BD000070B512480468FEF75FFE054646
:101550002046FFF7FDFE042084F8340004F1440027
:1015600000F0CAF92046FFF77AFE012805D1206F66
:1015700018B92046FFF727FE04E004F114010548DE
:10158000FFF7DEFD2846FEF745FEFFF771FE70BD52
:10159000780000208400002001E000F001F8FCE762
:1015A00070B531E0FEF732FE0546FFF78DF918B34E
:1015B00018480068A0F1140404F11400D0E90021D7
:1015C0005160D0E9001211604060006000BFFFF779
:1015D000C3FB206F10B12046216F88472046FFF7DC
:1015E0003EFE012805D1FFF7C7FB2846FEF712FE95
:1015F00070BDFFF7C1FB03E02846FEF70BFEF7E7DF
:101600002846FEF707FE00BFFFF75EF90028C9D1A4
:1016100000BFEDE7840000201FB520201F2180229D
:10162000074BCDE90032CDE902100023054A06A19F
:10163000074800F00FF8064800F06CF81FBD0000E6
:10164000900C0020991500087469646C6500000016
:10165000180C00202DE9FF5F05460C4616461F4674
:10166000DDE910ABDDE90E89224600212846FFF7AF
:10167000D3FD3B463246214628468DE8000FFFF752
:101680002DF904B0BDE8F09F70B5044694F834001D
:1016900000F00F00022802D04FF0FF3070BDFEF7BF
:1016A000B5FD054604F11400FFF760FD04F14400A8
:1016B00000F0C6F92846FEF7ADFD2046FFF720FEF4
:1016C0000020EBE701480068704700007800002028
:1016D00031B5FEF79BFD05460D480468204600F035
:1016E0002FF86A46002104F1440000F0E9F804F103
:1016F000440000F029F92846FEF78CFDFFF7B8FDFD
:10170000206B801C08B900202063002038BD000039
:101710007800002010B504463434A07860706178F9
:10172000012088406060022004F834092046FFF759
:10173000ABFFFFF7C7FF08B1FFF79AFD002010BD10
:1017400070B5044694F8340000F00F00012802D070
:101750004FF0FF3070BDFEF759FD054694F8340098
:1017600020F00F0040F0020084F834002046FFF71C
:10177000EFFD04F1440000F063F92846FEF74AFD4E
:101780000020E7E770B5044625466FF001002863A6
:1017900005F11400FFF7EAFC2846FFF7B1FDFFF75B
:1017A00067FD70BD70B5FEF731FD0546144804684D
:1017B00094F8340000F00F0001281CD1D4E9051082
:1017C000814218D004F11400FFF7D0FC94F83520C2
:1017D0000C4B03EBC20004F1140142681160426833
:1017E0004A604160086000BF2846FEF713FDFFF71E
:1017F0003FFD002070BD2846FEF70CFD0020F9E7F4
:1018000078000020900D002001480068704700001B
:101810002C00002010B50A480068401C08490860E8
:10182000FFF750FF0446206C401E2064206C18B95E
:10183000E06B2064FFF7B6FF00F004F810BD000075
:101840002C00002070B5FFF7DFFF0546FEF7DEFC39
:10185000064628E019480068A0F11404A06A281A76
:101860006FF0004188421DD22046FFF79AF8D4E974
:1018700007108847FFF7C8FF0546607A00F00200AE
:1018800058B1607A00F0010038B1607A20F00100B0
:101890006072204600F058F805E0607A20F0010000
:1018A000607200E004E00548FFF758FC0028D1D042
:1018B00000BF3046FEF7AEFC70BD00008C0000207B
:1018C000034649B1012904D0022908D0032910D1C7
:1018D0000AE0586A10600CE01068586209E0587A13
:1018E00020F00200587204E0587A40F0020058726A
:1018F00000BF00BF0020704770B50446FEF786FCAD
:1019000005462046FFF74DF82846FEF783FC2046A3
:10191000FFF759FC002070BD2DE9F84307460C463F
:1019200015461E46DDE90889224609213846FFF79B
:1019300073FC4346324629463846CDF80090FFF7FF
:101940000FF8BDE8F88300002DE9F8430546FEF7DF
:101950005DFC80462846FFF724F8687A20F00100F5
:1019600068724046FEF756FCFFF74EFF696A08446E
:10197000A862FEF74BFC80462F4F009700242AE018
:1019800019E05DF824201168142202EBC402881AC1
:10199000826AAB6AD21A00D108E0826AAB6AD21AB4
:1019A0006FF000439A4200D20CE000BF5DF82400C3
:1019B00000684DF824005DF8240007EBC401496875
:1019C0008842DED100BF2CB15DF824000830611CD4
:1019D0004DF82100641C002CD2D018480068401C2F
:1019E000164908600846066805F114010098FFF7DB
:1019F000AEFB022412E006F0030060B9C4F101035B
:101A000005F1140202EBC301C4F101025DF82200EA
:101A1000FFF79DFB00E003E0B608641C012CEAD947
:101A200000BF687A40F0010068724046FEF7F2FBA2
:101A30000020BDE8F88300008C0000209400002006
:101A400070B50446607A00F0010010B94FF0FF3025
:101A500070BDFEF7DBFB05462046FEF7A2FF2846D9
:101A6000FEF7D8FB607A20F0010060720020EFE7FB
:101A70002DE9FF4F89B0804644460A984044461EEF
:101A8000464504D24FF0FF36A6EB08000A906FE1FE
:101A90000B980078252806D0B44202D80B9800781D
:101AA0002070641C61E1002526E00B98401C0B901F
:101AB0000B9800782D2802D145F010051CE00B98FA
:101AC00000782B2802D145F0040515E00B9800782A
:101AD000202802D145F008050EE00B980078232855
:101AE00002D145F0200507E00B980078302802D19C
:101AF00045F0010500E000E0D7E700BF4FF0FF37F9
:101B00000B98007830380A2804D20BA800F061F94D
:101B100007460EE00B9800782A280AD10B98401C43
:101B20000B900C9880C80C90002F02DA7F4245F091
:101B300010054FF0FF390B9800782E281CD10B9818
:101B4000401C0B900B98007830380A2804D20BA860
:101B500000F03FF981460AE00B9800782A2806D168
:101B60000B98401C0B900C9850F8049B0C90B9F10A
:101B7000000F01DA4FF00009002004900B98007864
:101B8000682803D00B9800786C2805D10B98007852
:101B900004900B98401C0B900A2005900B9800783D
:101BA0006F2875D00CDC632813D004DC252870D096
:101BB00058286FD18DE064286DD06928F9D18FE065
:101BC00070286AD0732825D0752878D07828F0D16D
:101BD00082E005F0100040B904E0B44201D82020B2
:101BE0002070641C781E071EF7DC0C9810F8041B8C
:101BF0000C90C8B20790B44201D807982070641CBA
:101C000004E0B44201D820202070641C781E071E16
:101C1000F7DCAAE00C98006806900C98001D0C9068
:101C2000069808B95AA006900698FFF713FC834659
:101C3000B9F1000F02DDCB4500DDCB4605F0100009
:101C400048B904E0B44201D820202070641C384612
:101C50007F1E5845F6DC002008900BE0B44202D805
:101C6000069800782070641C0698401C069008981E
:101C7000401C089008985845F0DB04E0B44201D8B5
:101C800020202070641C38467F1E5845F6DC6CE02E
:101C90001CE015E028E022E0FFE7781C10B90827D7
:101CA00045F00105CDE9007902950C9804C8102390
:101CB00031460C902046FEF74DFF044655E012E0F9
:101CC000B44201D825202070641C4EE00820059005
:101CD0001DE045F0400500BF1020059017E000BF53
:101CE00045F0020500BF12E0B44201D82520207063
:101CF000641C0B98007830B1B44202D80B9800787D
:101D00002070641C02E00B98401E0B902DE000BF79
:101D100004986C2807D10C9850F804AB0C9005F08F
:101D20000200B8B116E0049868280BD10C9830F87E
:101D3000041B1FFA81FA0C9005F0020050B10FFA53
:101D40008AFA07E00C9850F804AB0C9005F00200FA
:101D500000B100BFCDE900790295524631462046D8
:101D6000059BFEF7F7FE044600BF0B98401C0B9046
:101D70000B98007800287FF48BAEB44201D8207015
:101D800001E000203070A4EB08000DB0BDE8F08F3A
:101D9000284E554C4C290000002070470020704709
:101DA000002070470020704710B5FEF72FFAFFF7AC
:101DB00001F8FFF7F7FAFFF7AFFBFFF76FFBFEF74E
:101DC0008FFFFFF7B7FBFFF727FCFFF78DFB002026
:101DD00010BD0146002009E00B685A1C0A601A7801
:101DE00000EB800302EB4302A2F130000A68127894
:101DF000303A0A2AF0D3704710B586B00446012164
:101E00000420FEF78BFB01218803FEF787FB4FF4CC
:101E10000070ADF8040003208DF8060018208DF83E
:101E2000070001A91248FEF7ADFA4FF48060ADF843
:101E3000040004208DF8070001A90D48FEF7A2FA5E
:101E400002940020ADF814000C20ADF81200002020
:101E5000ADF81000ADF80E00ADF80C0002A9054871
:101E6000FEF79CFC01210348FEF77EFC06B010BD86
:101E7000000801400038014000000100020001009C
:101E80000300010002000100040001000200010043
:101E90000300010002000100050001000200010032
:101EA0000300010002000100040001000200010023
:101EB0000300010002000100060001000200010011
:101EC0000300010002000100040001000200010003
:101ED00003000100020001000500010002000100F2
:101EE00003000100020001000400010002000100E3
:101EF00003000100020001000700010002000100D0
:101F000003000100020001000400010002000100C2
:101F100003000100020001000500010002000100B1
:101F200003000100020001000400010002000100A2
:101F30000300010002000100060001000200010090
:101F40000300010002000100040001000200010082
:101F50000300010002000100050001000200010071
:101F60000300010002000100040001000200010062
:101F700003000100020001003031323334353637BE
:101F80003839616263646566003031323334353626
:101F9000373839414243444546000000A51D00083A
:101FA0009D1D0008991D0008A11D0008CC1F0008F8
:101FB00000000020AC0000006C0100087820000840
:101FC000AC000020441400008801000800A24A046C
:101FD00000000000000000000102030406070809D9
:101FE00000000000010203040102030406070809BF
:101FF00002040608000000000000000000000000CD
:1020000000000000380000203800002078000000A8
:1020100001000000480000204800002020000000CF
:10202000040000005800002058000020300000008C
:102030000900000068000020680000202C0000005B
:102040000000000000000000000000000000000090
:102050000000000000000000000000000000000080
:102060000000000000000000000000000000000070
:08207000000000000100000067
:0400000508000131BD
:00000001FF
