:020000040800F2
:10000000601A0020CD010008D5010008B3020008E5
:10001000D9010008DB010008DD0100080000000034
:10002000000000000000000000000000DF010008E8
:10003000E1010008000000003B0200084108000840
:10004000E7010008E7010008E7010008E7010008F0
:10005000E7010008E701000885030008E701000840
:10006000E7010008E7010008E7010008E7010008D0
:10007000E7010008E7010008E7010008E7010008C0
:10008000E7010008E7010008E7010008E7010008B0
:10009000E7010008E7010008E7010008E7010008A0
:1000A000E7010008E7010008E7010008E701000890
:1000B000E7010008E7010008E7010008E701000880
:1000C000E7010008E7010008E7010008E701000870
:1000D000E7010008E7010008E7010008E701000860
:1000E000E7010008E7010008E7010008E701000850
:1000F000E7010008E7010008E7010008E701000840
:10010000E7010008E7010008E7010008E70100082F
:10011000E7010008E7010008E7010008E70100081F
:10012000E7010008E7010008E7010008E70100080F
:1001300000F002F800F03AF80AA090E8000C8244BF
:100140008344AAF10107DA4501D100F02FF8AFF29C
:10015000090EBAE80F0013F0010F18BFFB1A43F0A5
:10016000010318476028000080280000103A24BFCF
:1001700078C878C1FAD8520724BF30C830C144BF0C
:1001800004680C607047000000230024002500264E
:10019000103A28BF78C1FBD8520728BF30C148BFEA
:1001A0000B6070471FB51FBD10B510BD00F0A9F85A
:1001B0001146FFF7F7FF00F0DEF800F0C7F803B4D0
:1001C000FFF7F2FF03BC00F0CFF8000009488047BA
:1001D00009480047FEE7FEE7FEE7FEE7FEE7FEE729
:1001E000FEE7FEE7FEE7FEE704480549054A064B41
:1001F0007047000051080008310100086014002019
:10020000601A00206016002060160020EFF31080B6
:1002100072B6704780F310887047324A1368012B1A
:1002200004D04FF0010313602F4A10602F4A116071
:100230002F484FF0805101607047EFF3108272B683
:100240002848016891B14FF000010160264801681B
:1002500029B1EFF3098121E9F00F0068016023491A
:1002600009680968B1E8F00F81F3098882F3108802
:100270004EF0040E70471D4908601B494FF0000006
:10028000086018494FF0010008601A484FF47F01D8
:10029000D0F8002041EA0201016015484FF080517A
:1002A000016015480068006880F3088861B662B68E
:1002B00070471EF0040F14BFEFF30880EFF30980BE
:1002C00020E9F00F40F804ED14BF80F3088880F3B4
:1002D000098800B500F014FF5DF804EB4EF0040E41
:1002E00070470000D8000020D0000020D40000207B
:1002F00004ED00E020ED00E008ED00E070477047FD
:100300007047754600F02CF8AE4605006946534626
:1003100020F00700854618B020B5FFF765FFBDE85F
:1003200020404FF000064FF000074FF000084FF05C
:10033000000B21F00701AC46ACE8C009ACE8C009ED
:10034000ACE8C009ACE8C0098D46704710B504465A
:10035000AFF300802046BDE81040FFF730BF00003B
:1003600000487047FC13002001491820ABBEFEE78F
:1003700026000200704710B5FFF748FF02F020FA90
:10038000002010BD10B5012000F016F8012808D19A
:10039000012204490448006801F09EFA012000F09F
:1003A00005F810BDE0000020300000200149086081
:1003B0007047000014040140014600200022074B52
:1003C0001B6803EA0102054B14331B680B4013B191
:1003D0000AB1012000E00020704700000004014045
:1003E000002123498279002A3AD00A46126803681C
:1003F0009A430B461A600A1D126803689A430B1D44
:100400001A60027911440A6803681A430A60184A9C
:100410000832126803689A43154B08331A601A1D94
:10042000126803689A43124B0C331A604279102AFF
:100430000ED11A1F126803681A430D4B08331A6055
:100440001A1D126803681A43094B0C331A600DE039
:100450000749427911440A6803681A430A6005E0B3
:10046000027911440A6803689A430A6070470000E1
:10047000000401402DE9F04102460025002600203D
:1004800000230024002791F803C00CF00F0591F819
:1004900003C00CF0100CBCF1000F03D091F802C0A7
:1004A0004CEA050591F800C0BCF1000F31D014688A
:1004B00000202BE04FF0010C0CFA00F3B1F800C063
:1004C0000CEA03069E4220D183004FF00F0C0CFA79
:1004D00003F7BC4305FA03FC4CEA040491F803C09B
:1004E000BCF1280F06D14FF0010C0CFA00FCC2F849
:1004F00014C00AE091F803C0BCF1480F05D14FF0D9
:10050000010C0CFA00FCC2F810C0401C0828D1D322
:100510001460B1F800C0BCF1FF0F34DD5468002056
:100520002EE000F1080C4FF0010808FA0CF3B1F8C6
:1005300000C00CEA03069E4221D183004FF00F0C4D
:100540000CFA03F7BC4305FA03FC4CEA040491F8E7
:1005500003C0BCF1280F05D100F1080C08FA0CF813
:10056000C2F8148091F803C0BCF1480F07D100F124
:10057000080C4FF0010808FA0CF8C2F81080401C73
:100580000828CED35460BDE8F08141617047016115
:10059000704700001FB50121042000F063F82820F7
:1005A0008DF80F000120ADF80C0003208DF80E002F
:1005B00003A90F48FFF75EFF012001908DF80A00A4
:1005C00000208DF8080008208DF8090001A8FFF729
:1005D00007FF06208DF8000001208DF8030002209F
:1005E0008DF801008DF80200684600F003F81FBD89
:1005F0000008014070B5002100230F22C47804B325
:10060000154C246804F4E064C4F5E064210AC1F1E7
:100610000403CA40447804FA03F184781440214367
:1006200009010E4C0678A155047804F01F05012439
:10063000AC4005786D11AD0005F1E025C5F800412D
:1006400009E0047804F01F050124AC40044D06784D
:10065000761145F8264070BD0CED00E000E400E0A6
:1006600080E100E029B1064A92690243044B9A6195
:1006700004E0034A92698243014B9A61704700008B
:100680000010024030B500210022002400232D4D2F
:100690006D6805F00C0121B1042905D0082923D18A
:1006A00005E0294D056022E0274D05601FE0254D3E
:1006B0006D6805F47012234D6D6805F480340225D1
:1006C00005EB92421CB9214D554305600BE01D4DD1
:1006D0006D6805F400351DB11C4D5543056002E001
:1006E000194D5543056002E0174D056000BF00BF7E
:1006F000144D6D6805F0F0010909154D6B5C056836
:10070000DD4045600F4D6D6805F4E061090A104D4C
:100710006B5C4568DD4085600A4D6D6805F460518D
:10072000C90A0B4D6B5C4568DD40C560054D6D68C1
:1007300005F44041890B074D6B5CC568B5FBF3F5CB
:10074000056130BD0010024000127A0000093D0032
:10075000140000202400002010B500F001F810BDA6
:100760000CB50020019000903348006840F48030C0
:100770003149086000BF3048006800F40030009044
:100780000198401C0190009818B90198B0F5A06F2D
:10079000F1D12948006800F4003010B10120009028
:1007A00001E0002000900098012843D12348006810
:1007B00040F01000214908600846006820F003005E
:1007C00008600846006840F0020008601A48406867
:1007D000194948600846406848600846406840F447
:1007E000806048600846406820F47C1048600846F5
:1007F000406840F4E81048600846006840F08070A7
:10080000086000BF0C48006800F000700028F9D0B4
:100810000948406820F003000749486008464068DE
:1008200040F00200486000BF0348406800F00C0040
:100830000828F9D10CBD0000001002400020024041
:1008400010B500F083FD01F0F1FC00F08FFD10BD4C
:1008500010B51348006840F00100114908600846CF
:100860004068104908400E494860084600680E4933
:1008700008400B4908600846006820F480200860A2
:100880000846406820F4FE0048604FF41F0088606E
:10089000FFF762FF4FF000600449086010BD0000E0
:1008A000001002400000FFF8FFFFF6FE08ED00E038
:1008B00021B1828942F40052828104E082894DF69E
:1008C000FF731A408281704702460020B1F5007F15
:1008D00000D100BF13880B400BB1012000E00020C5
:1008E000704700002DE9F04786B005460E4600240B
:1008F000A24600BFA1460027B08900B100BF2F4625
:100900002C8A4CF6FF700440F08804432C82AC899A
:100910004EF6F3100440B0883189084371890843CA
:100920000443AC81AC8A4FF6FF400440B0890443D5
:10093000AC8201A8FFF7A6FE1F48874202D1DDF86E
:1009400010A001E0DDF80CA0A88900F4004040B13F
:100950000AEBCA0000EB0A1031684900B0FBF1F85D
:1009600007E00AEBCA0000EB0A1031688900B0FB0F
:10097000F1F86420B8FBF0F004012009642101FBC8
:100980001089A88900F4004040B1322000EBC90072
:10099000B0FBF1F000F00700044308E0322000EB68
:1009A00009106421B0FBF1F000F00F0004432C812A
:1009B00006B0BDE8F087000000380140C1F308022E
:1009C00082807047014609B900207047C8B220B143
:1009D000C8B20E4A105C401CF7E701F47F4028B112
:1009E0000A48C1F30722805C0930EEE701F47F007A
:1009F00028B10648C1F30742805C1130E5E703489F
:100A000000EB116000781930DFE700009028000843
:100A100003490868884201D0012070470020FCE7A4
:100A2000BC0000202DE9FC5F04468B4615461E469F
:100A3000DDE90C9ADDE90E7804F1140040600060F5
:100A400000BF1C346560A660C4F80C90C4F810A008
:100A50002321D4E9030200F04FFED4E9033C6344B0
:100A60001A1F0F4BD4E9010100F04AFC2060A77661
:100A700067760020E061C4F82080C4F824806061BB
:100A800020766065A0651C3C00902346054A2146FF
:100A9000019004F1440001F04BFC0020BDE8FC9FF4
:100AA000511F00089D2100082DE9F04704460E461D
:100AB00017469846DDF8209084F80990607A20F077
:100AC00001006072E66127620020A062C4F8248001
:100AD000002506E004F1140101EBC50000F0D6FC8E
:100AE0006D1C012DF6DBBDE8F08710B50246002035
:100AF00001460EE002F1140303EBC100D0E900430C
:100B00006360D0E9003423604060006000BF481C8F
:100B100001460129EEDB10BD08B5002415E04FF0B9
:100B2000FF33012269460948006800F057FE044679
:100B30005CB99DF80000012805D19DF8001004A0C3
:100B400000F086FC00E000BF00BFE8E730000020B6
:100B50006B65792564B4A5B7A20D0A0008B501211B
:100B60004820FFF77FFD10208DF803002020ADF80E
:100B7000000003208DF8020069460848FFF77AFC60
:100B800020210648FFF703FD69460548FFF772FC80
:100B900020210348FFF7FBFC08BD0000000C0140CA
:100BA000001801400FE04FF4FA7001F0CAF920215B
:100BB0000548FFF7ECFC4FF4FA7001F0C2F9202170
:100BC0000148FFF7E2FCEEE7000C01401CB50023F2
:100BD000012211461AA000F0B3FD1A490860084628
:100BE000006810B94FF0FF301CBD142005214FF4F0
:100BF00000730022CDE90010134914A001F079F927
:100C0000134908600846006818B10846006801F0FA
:100C10008DFA142003214FF400730022CDE9001057
:100C20000C490DA001F065F90C4908600846006800
:100C300018B10846006801F079FA0020D4E70000F6
:100C40006D71000030000020A50B00086C65640089
:100C500034000020190B00086B6579003800002073
:100C600010B5044600F02CF9FFF7B0FF10BD0000EE
:100C700030B51A4C436824681919884215D04B883E
:100C80009BB9174B1B6899420FD0164B1B688B42C0
:100C900001D1144B18604B684360104B1B68C31A9A
:100CA0000E4D4C682D682C44A3600C4C836824685E
:100CB0001A19824211D053887BB90A4B1B688342B0
:100CC00001D1084B1A6043685360044B1B68D31A68
:100CD000024D44682D682C44A36030BD44000020C0
:100CE000480000204C0000202DE9F04F85B00D4653
:100CF0009C46DDE90F740E9B04F04008B8F1000F2C
:100D000002D0DFF8688101E0DFF86481CDF800806F
:100D100004F01008B8F1000F01D024F0010404F031
:100D20000108B8F1000F02D04FF0300801E04FF099
:100D30002008C246002604F00208B8F1000F11D0C6
:100D4000002A02DA2D2652420CE004F00408B8F121
:100D5000000F01D02B2605E004F00808B8F1000FC1
:100D600000D02026002142B94FF0300B8846491CA4
:100D70000DF1040909F808B01DE01AE0E146B9F1E7
:100D80000A0F08D14FF00A0BB2FBFBFE0BFB1E282B
:100D9000B2FBFBF202E002F00F08120900BFDDF81F
:100DA000009019F808B08846491C0DF1040909F8AB
:100DB00008B0002AE2D1B94200DD0F46DB1B04F087
:100DC0001108B8F1000F10D116B1002B00DD5B1E29
:100DD00006E0A84203D84FF0200880F80080401CAD
:100DE000B3F10008A3F10103F3DC26B1A84201D856
:100DF00006705B1E401C04F01008B8F1000F0AD109
:100E000004E0A84201D880F800A0401CB3F100081B
:100E1000A3F10103F5DC06E0A84203D84FF0300847
:100E200080F80080401CB8467F1E8845F4DC08E04E
:100E3000A84205D80DF1040818F8018080F8008058
:100E4000401CB1F10008A1F10101F1DC06E0A8426B
:100E500003D84FF0200880F80080401CB3F1000850
:100E6000A3F10103F3DC05B0BDE8F08FA129000870
:100E7000902900081CB514200A214FF400730022A9
:100E8000CDE90010044905A001F033F804462046DE
:100E900001F04CF91CBD0000610C00086D61696E29
:100EA0000000000010B5044C02E020688047241DBB
:100EB00002488442F9D310BDB8290008BC290008B3
:100EC00010B5044C02E020688047241D024884428B
:100ED000F9D310BDBC290008C029000810B5FFF7E0
:100EE00095F9044604480088401C00B20249088075
:100EF0002046FFF78FF910BDAC00002010B5FFF7BA
:100F000085F904460B480088401E00B20949088054
:100F10000846B0F90000002807DC002008802046C1
:100F2000FFF778F900F09CFD02E02046FFF772F928
:100F300010BD0000AC00002070B5054605B970BDBD
:100F40001D480068854203D31C480068854200D3D1
:100F5000F5E7A5F10C044FF0FF31194800F04AFE07
:100F6000608818B12088B0F5F55F08D015A000F0B2
:100F70006FFA23886288214619A000F069FA0020E0
:100F800060804FF4F550208021480068844201D2EF
:100F90001F480460084960680968611A401A1D49C1
:100FA0000968081A1B4908602046FFF761FE0448DB
:100FB00000F003FE00BFC2E744000020480000200C
:100FC000DC120020746F206672656520612062610A
:100FD00064206461746120626C6F636B3A0A000084
:100FE0006D656D3A203078253038782C2075736522
:100FF0006420666C61673A2025642C206D61676906
:101000006320636F64653A203078253034780A00B5
:101010004C0000205400002000487047E4000020ED
:1010200000487047E410002070B51E4800684FF477
:101030007A72B0FBF2F1B1F1807F00D31DE021F0B4
:101040007F40401E4FF0E022506150170F220028D1
:1010500007DA13071D0E144B00F00F04241F1D5553
:1010600003E013071C0E114B1C5400BF00204FF06F
:10107000E02290610720106100BFFFF78BFAFFF7B5
:101080006DFD4FF4E13001F0C3FBFFF70BFFFFF7FD
:10109000C7FF0446FFF7C0FF0546214600F060FE8B
:1010A00070BD00000000002018ED00E000E400E04A
:1010B00010B50446FFF712FF19E020780A280AD17C
:1010C0000D210E48FFF77AFC00BF40210B48FFF7C7
:1010D000FBFB0028F9D014F8011B0848FFF76EFC51
:1010E00000BF40210548FFF7EFFB0028F9D020782A
:1010F0000028E2D1FFF702FF10BD000000380140D8
:1011000070B505462C1D2E48006838B128462C497C
:1011100009688847064606B970BD00BF29A0E16B83
:1011200000F096F92BA0216A00F092F92DA0616AD7
:1011300000F08EF92FA0A16A00F08AF931A0E16ACF
:1011400000F086F933A0216800F082F935A06168CB
:1011500000F07EF937A0A16800F07AF939A0E168C3
:1011600000F076F93BA0216900F072F93DA06169B9
:1011700000F06EF93FA0A16900F06AF941A0E169B1
:1011800000F066F943A0216B00F062F945A0616BA5
:1011900000F05EF947A0A16B00F05AF9287800F042
:1011A000040038B100F09AFF0646314645A000F031
:1011B0004FF902E04BA000F04BF900BFFEE7000042
:1011C000DC0000207073723A203078253038780ABD
:1011D000000000007230303A203078253038780A2C
:1011E000000000007230313A203078253038780A1B
:1011F000000000007230323A203078253038780A0A
:10120000000000007230333A203078253038780AF8
:10121000000000007230343A203078253038780AE7
:10122000000000007230353A203078253038780AD6
:10123000000000007230363A203078253038780AC5
:10124000000000007230373A203078253038780AB4
:10125000000000007230383A203078253038780AA3
:10126000000000007230393A203078253038780A92
:10127000000000007231303A203078253038780A8A
:10128000000000007231313A203078253038780A79
:10129000000000007231323A203078253038780A68
:1012A00000000000206C723A203078253038780A2F
:1012B000000000002070633A203078253038780A2A
:1012C0000000000068617264206661756C74206FB4
:1012D0006E207468726561643A2025730D0A0D0AE8
:1012E0000000000068617264206661756C74206F94
:1012F0006E2068616E646C65720D0A0D0A00000054
:10130000F0B504460D461646301D20F00700403863
:101310000146002203E00C4F41F82270521C102AB3
:10132000F9D30D624FF0000CC1F824C0C1F828C0F9
:10133000C1F82CC0C1F830C04B638C634FF0807C87
:10134000C1F83CC0F0BD0000EFBEADDE10B5FEF749
:101350005DFF044604480078401C0349087020469D
:10136000FEF758FF10BD00004000002010B5FEF74A
:101370004DFF044604480078401E0349087020468B
:10138000FEF748FF10BD00004000002070B5044685
:101390002068A0F11405284600F082FE002070BDF0
:1013A00070B505460EE0FEF731FF06462868A0F14D
:1013B00014044FF0FF302063204600F071FE3046E9
:1013C000FEF728FF284600F080F80028EBD0002028
:1013D00070BD2DE9F04105460C469046204600F0D0
:1013E000BBFEB8F1000F03D0B8F1010F23D105E027
:1013F00004F11401284600F061F81CE02E680FE0AB
:10140000A6F1140794F8350097F83510884206DAEB
:1014100004F1140107F1140000F050F802E03668FE
:10142000AE42EDD100BFAE4204D104F11401284612
:1014300000F044F800BF00BF0020BDE8F08110B507
:10144000044604F1140000F01BF8002010BD000059
:101450000FB438B505A800907F210848009B049A76
:1014600001F012F804467F2C00D97F240348FFF7CF
:101470001FFE0020009038BC5DF814FB5C120020B9
:1014800040600060704740600060704740600060EE
:1014900070470268516002680A60016048607047E6
:1014A0000268516002680A60016048607047026823
:1014B000516002680A6001604860704742681160CC
:1014C00042684A6041600860704701460868884287
:1014D00001D1012070470020FCE7014608688842DE
:1014E00001D1012070470020FCE7D0E900215160C4
:1014F000D0E900121160406000607047D0E900211F
:101500005160D0E900121160406000607047000037
:101510002DE9F041054615B90020BDE8F081E81C31
:1015200020F003054E480068854201D90020F4E709
:101530000C2D00D20C254FF0FF314A4800F05AFB29
:101540004948006849490968461A7EE047480068EA
:1015500084196088002874D106F10C006168081AAB
:10156000A8426ED306F10C006168091A05F1180053
:10157000814230D306F10C0000EB05083B480068BF
:1015800000EB08074FF4F550388000207880606841
:101590007860BE60C4F804800120608030487968BB
:1015A00000680C30814205D03049786809680844E9
:1015B000C0F808802E48016805F10C0008442C4949
:1015C00008602C4800680968884219D228480068D9
:1015D0002849086014E00120608024496068096897
:1015E000611A401A224909680844214908602148C3
:1015F00000680968884203D21D4800681D490860D8
:101600004FF4F550208018480068844212D107E05A
:10161000154800684068154909680844124908607F
:1016200011480068408828B10F48006812490968CD
:101630008842EDD10B4800F0C0FA04F10C006CE7D1
:10164000FFE70A4800683044466805480068401BC8
:10165000B0423FF67BAF034800F0AFFA00205CE7F2
:1016600050000020DC1200204C000020440000202C
:101670005400002058000020480000202DE9F041CF
:101680000F46164604463D463346102B28D305F038
:10169000030C04F003084CEA080CBCF1000F1FD146
:1016A00021462A4610E052F804CB41F804CB52F808
:1016B00004CB41F804CB52F804CB41F804CB52F8E8
:1016C00004CB41F804CB103B102BECD204E052F8D1
:1016D00004CB41F804CB1B1F042BF8D20C46154653
:1016E00003E015F801CB04F801CBB3F1000CA3F132
:1016F0000103F6D1BDE8F081F0B50C460546E6B22F
:10170000042A15D300F0030797B9014646EA0623D9
:1017100043EA034304E008C108C108C108C1103A04
:10172000102AF8D201E008C1121F042AFBD20D468C
:1017300001E005F8016B171EA2F10102F9D1F0BD1D
:101740002DE9F0470746884691469A4639460520D6
:1017500000F008F9044614B92046BDE8F08784F883
:1017600009A02046FFF76BFE08F1030020F00300FC
:101770002084A4F82290218C091D628C01FB02F0C8
:10178000FFF7C6FEE061E06920B9204600F018F8D6
:101790000020E2E70020A062E0622063002508E06C
:1017A000208C001DE16905FB0016206B306026636C
:1017B0006D1C608CA842F3DC0020A0842046CCE79E
:1017C00010B5044604F11400FFF7EAFDE069FFF7E5
:1017D000B3FB204600F0EBF8002010BD2DE9FF47D9
:1017E00004460F4690464FF0000900F077FC05468E
:1017F000FEF70CFD8246A08C48B9039838B95046D4
:10180000FEF708FD6FF0010004B0BDE8F0873CE092
:1018100000202863039830B95046FEF7FBFC6FF0B8
:1018200001002863F0E7627A294604F11400FFF70B
:10183000D0FD039800280CDD00F0F2FC814603AADD
:10184000002105F1440000F047FD05F1440000F0DF
:1018500087FD5046FEF7DEFC00F002F9286B08B168
:10186000286BD1E7FEF7D2FC8246039800280CDDF6
:1018700000F0D6FCA0EB09090398A0EB0900039047
:101880000398002801DA00200390A08C0028BFD024
:10189000A66A3068A062E06AB04201D10020E0622E
:1018A000A08C401EA0845046FEF7B4FC208C40451E
:1018B00001D2208C00E040460246311D3846FFF739
:1018C000DDFEFEF7A3FC8246206B306026635046A7
:1018D000FEF7A0FC002097E72DE9F04104460F46F3
:1018E0001646208CB04203D24FF0FF30BDE8F081A5
:1018F000FEF78CFC8046256B2DB94046FEF78AFC2E
:101900006FF00200F2E7286820634046FEF782FC91
:101910000020286032463946281DFFF7AFFEFEF74B
:1019200075FC8046E06A08B1E06A0560E562A06A7D
:1019300000B9A562A08C401CA08404F11400FFF73C
:10194000C4FD50B904F11400FFF720FD4046FEF736
:1019500061FC00F085F80020C8E74046FEF75AFC1D
:101960000020C3E72DE9F04105460F46284600F068
:101970003BF80646F068FFF7CBFD044614B900209B
:10198000BDE8F081257200206072082239462046A9
:1019900000F0CBF9FEF73AFC804604F10C01301D53
:1019A000FFF777FD4046FEF735FC2046E8E770B5C7
:1019B0000446FEF72BFC054604F10C00FFF795FDED
:1019C0002846FEF727FC2046FFF7B6FA70BD70B533
:1019D0000446FEF71BFC054604F10C00FFF785FDED
:1019E0002846FEF717FC70BD024600210AE00748B2
:1019F00000EB01100078904203D1044800EB011085
:101A00007047491C0529F2DB0020F9E75C00002043
:101A10002DE9F04104460D4616462846FFF7E4FF3F
:101A2000074645F08000207208223146204600F02B
:101A30007CF9FEF7EBFB804604F10C01381DFFF743
:101A400028FD4046FEF7E6FBBDE8F0810146087A36
:101A500000F0800008B1012070470020FCE7000082
:101A60002DE9F041FEF7D2FB07461B48008868BB12
:101A70001A480068FEF7A6FF461E194850F83600BF
:101A8000A0F114041748006884421BD016490E7058
:101A90001448056804601548007848B904F11C0131
:101AA00005F11C00FEF7B9FB3846FEF7B3FB0CE06E
:101AB00004F11C0105F11C00FEF7AFFB3846FEF7F0
:101AC000A9FB02E03846FEF7A5FB02E03846FEF728
:101AD000A1FBBDE8F0810000AC000020B8000020B0
:101AE000FC120020B0000020B400002040000020C4
:101AF00070B50446FEF78AFB054614F8340F20F053
:101B00000F0040F0010020706278343C0A4B03EB78
:101B1000C20004F114014268116042684A604160E9
:101B2000086000BF0549A06B0968084303490860C5
:101B30002846FEF76FFB70BDFC120020B8000020A5
:101B400070B50446FEF762FB054604F11400D0E9C7
:101B500000215160D0E9001211604060006000BFB8
:101B600094F83510094A02EBC1000168814201D1A5
:101B7000012100E0002129B10548A16B00688843DC
:101B8000034908602846FEF745FB70BDFC120020A3
:101B9000B80000202DE9F04104460D4616461F46C8
:101BA0002A4601212046FFF733FF2046FFF747FC76
:101BB000A68367720020BDE8F08170B50446002559
:101BC000FEF724FB064604F11400FFF77EFC28B95B
:101BD00004F11400FFF7DAFB012502E0A08B401CA2
:101BE000A0833046FEF716FB012D01D1FFF738FF29
:101BF000002070BD73B50546FEF708FB0646A88BAE
:101C0000002806DDA88B401EA8833046FEF702FBA5
:101C100028E0019828B93046FEF7FCFA6FF0010081
:101C20007CBD00F05BFA0446002020636A7A2146FE
:101C300005F11400FFF7CDFB0198002809DD01AA8A
:101C4000002104F1440000F047FB04F1440000F0DF
:101C500087FB3046FEF7DEFAFFF702FF206B08B184
:101C6000206BDDE70020DBE708B509A0FFF7F0FBFC
:101C70000AA0FFF7EDFB12A00323002219460090F3
:101C800012A0FFF7E5FB19A0FFF7E2FB08BD00007B
:101C90000A205C207C202F0A000000002D205254D6
:101CA000202D2020202020546872656164204F7010
:101CB00065726174696E672053797374656D0A008B
:101CC0004D6179202037203230313900202F207C9F
:101CD000205C202020202025642E25642E256420D1
:101CE0006275696C642025730A0000002032303070
:101CF00036202D203230313820436F707972696779
:101D000068742062792072742D7468726561642031
:101D10007465616D0A00000001460A4600E0521C2D
:101D200010780028FBD1501A704770B50346A2B155
:101D300018460C4600BF14F8016B00F8016B3EB961
:101D400002E0002500F8015B551E2A1EF9D102E0D1
:101D5000551E2A1EEFD100BF00BF184670BD0000FF
:101D60002DE9F04105460E46E81C20F0030726F059
:101D70000308B8F1180F09D9A8F11800B84205D323
:101D8000A8EB070018381E49086006E032462946CD
:101D90001CA0FFF75DFBBDE8F081294807600468DF
:101DA0004FF4F5502080164800680C306060002029
:101DB000A060608022496068096808442149086081
:101DC0004FF4F5500968088001201E4909684880D1
:101DD0000B4800680C301B490968486008480068D7
:101DE0000C301849096888600023012216A11848A0
:101DF000FFF7D0FE124800681649086000BFCAE726
:101E0000500000206D656D20696E69742C2065722C
:101E1000726F7220626567696E20616464726573B7
:101E20007320307825782C20616E6420656E6420E4
:101E30006164647265737320307825780A0000004D
:101E40004400002048000020686561700000000028
:101E5000DC1200204C00002010B500200B49088047
:101E6000002405E00A4901EBC400FFF70CFB641CE9
:101E7000202CF7DB1F200749087000200649086066
:101E8000064908600648FFF7FEFA10BDAC000020C6
:101E9000FC120020B4000020B0000020B800002098
:101EA000BC00002070B508480068FEF78BFD451E99
:101EB000064850F83500A0F114040548046004F108
:101EC0001C00FEF7D8F970BDB8000020FC120020FD
:101ED000B000002010B5002405E0044901EBC40067
:101EE000FFF7D4FA641C002CF7D010BDC40000200A
:101EF00070472DE9FF5F06460F4690461D46DDE917
:101F00000EAB31460020FFF72DFD8146B9F1000FE1
:101F100003D1002004B0BDE8F09F2846FFF7F8FA8F
:101F2000044624B94846FFF742FD0020F2E7434645
:101F30003A46314648468DE8300CFEF773FD484678
:101F4000E8E710B50446204600F0CEF810BD0000CA
:101F500070B512480468FEF759F905462046FFF7A8
:101F6000EFFD042084F8340004F1440000F0D0F9BF
:101F70002046FFF76BFD012805D1206F18B92046D8
:101F8000FFF725FD04E004F114010548FFF788FA86
:101F90002846FEF73FF9FFF763FD70BDB000002053
:101FA000BC00002001E000F001F8FCE770B537E06C
:101FB000FEF72CF90546FEF72BFD18B31B48006809
:101FC000A0F1140404F11400D0E900215160D0E91B
:101FD000001211604060006000BFFEF77FFF206FBD
:101FE00010B12046216F88472046FFF72FFD0128BA
:101FF00005D1FEF783FF2846FEF70CF970BDFEF70A
:102000007DFF03E02846FEF705F9F7E72846FEF7CF
:1020100001F9A06AFEF790FF2046FFF7C8FC00BF59
:10202000FEF7F6FC0028C3D100BFE7E7BC000020A4
:102030001FB520201F21C200074BCDE90032CDE99A
:1020400002100023054A06A1074800F00FF80648D1
:1020500000F06CF81FBD00005C110020A51F0008F7
:102060007469646C65000000E41000202DE9FF5FD6
:1020700005460C4616461F46DDE910ABDDE90E8924
:10208000224600212846FFF7C3FC3B463246214644
:1020900028468DE8000FFEF7C5FC04B0BDE8F09FB0
:1020A00070B5044694F8340000F00F00022802D006
:1020B0004FF0FF3070BDFEF7A9F8054604F114009B
:1020C000FFF71CFA04F1440000F0C6F92846FEF7B9
:1020D000A1F82046FFF70CFD0020EBE7014800685F
:1020E00070470000B000002031B5FEF78FF80546BC
:1020F0000D480468204600F02FF86A46002104F1DC
:10210000440000F0E9F804F1440000F029F9284601
:10211000FEF780F8FFF7A4FC206B801C08B90020B4
:102120002063002038BD0000B000002010B5044638
:102130003434A078607061780120884060600220AB
:1021400004F834092046FFF7ABFFFFF7C7FF08B1DB
:10215000FFF786FC002010BD70B5044694F83400EB
:1021600000F00F00012802D04FF0FF3070BDFEF7E5
:102170004DF8054694F8340020F00F0040F00200BE
:1021800084F834002046FFF7DBFC04F1440000F043
:1021900063F92846FEF73EF80020E7E770B50446ED
:1021A00025466FF00100286305F11400FFF7A6F93A
:1021B0002846FFF79DFCFFF753FC70BD70B5FEF796
:1021C00025F805461448046894F8340000F00F0020
:1021D00001281CD1D4E90510814218D004F1140063
:1021E000FFF78CF994F835200C4B03EBC20004F197
:1021F00014014268116042684A604160086000BF93
:102200002846FEF707F8FFF72BFC002070BD284694
:10221000FEF700F80020F9E7B0000020FC120020D3
:1022200001480068704700003C00002010B50A48D3
:102230000068401C08490860FFF750FF0446206C06
:10224000401E2064206C18B9E06B2064FFF7B6FFD5
:1022500000F004F810BD00003C00002070B5FFF74E
:10226000DFFF0546FDF7D2FF064628E01948006863
:10227000A0F11404A06A281A6FF0004188421DD210
:102280002046FEF732FCD4E907108847FFF7C8FF65
:102290000546607A00F0020058B1607A00F0010053
:1022A00038B1607A20F001006072204600F058F8E2
:1022B00005E0607A20F00100607200E004E005486B
:1022C000FFF70BF90028D1D000BF3046FDF7A2FF81
:1022D00070BD0000C4000020034649B1012904D0AC
:1022E000022908D0032910D10AE0586A10600CE0D6
:1022F0001068586209E0587A20F00200587204E031
:10230000587A40F00200587200BF00BF00207047AA
:1023100070B50446FDF77AFF05462046FEF7E5FB5B
:102320002846FDF777FF2046FFF751FB002070BDE0
:102330002DE9F84307460C4615461E46DDE9088997
:10234000224609213846FFF763FB434632462946B9
:102350003846CDF80090FEF7A7FBBDE8F8830000F3
:102360002DE9F8430546FDF751FF80462846FEF764
:10237000BCFB687A20F0010068724046FDF74AFF16
:10238000FFF74EFF696A0844A862FDF73FFF8046E9
:102390002F4F009700242AE019E05DF824201168EF
:1023A000142202EBC402881A826AAB6AD21A00D1E4
:1023B00008E0826AAB6AD21A6FF000439A4200D2F8
:1023C0000CE000BF5DF8240000684DF824005DF8C3
:1023D000240007EBC40149688842DED100BF2CB15C
:1023E0005DF824000830611C4DF82100641C002CAD
:1023F000D2D018480068401C164908600846066894
:1024000005F114010098FFF752F8022412E006F0DB
:10241000030060B9C4F1010305F1140202EBC3012A
:10242000C4F101025DF82200FFF741F800E003E08B
:10243000B608641C012CEAD900BF687A40F001009C
:1024400068724046FDF7E6FE0020BDE8F883000014
:10245000C4000020CC00002070B50446607A00F073
:10246000010010B94FF0FF3070BDFDF7CFFE0546FB
:102470002046FEF73AFB2846FDF7CCFE607A20F0B6
:10248000010060720020EFE72DE9FF4F89B0804620
:1024900044460A984044461E464504D24FF0FF3653
:1024A000A6EB08000A906FE10B980078252806D06B
:1024B000B44202D80B9800782070641C61E10025BA
:1024C00026E00B98401C0B900B9800782D2802D129
:1024D00045F010051CE00B9800782B2802D145F040
:1024E000040515E00B980078202802D145F0080576
:1024F0000EE00B980078232802D145F0200507E074
:102500000B980078302802D145F0010500E000E08A
:10251000D7E700BF4FF0FF370B98007830380A2814
:1025200004D20BA800F061F907460EE00B98007882
:102530002A280AD10B98401C0B900C9880C80C904C
:10254000002F02DA7F4245F010054FF0FF390B985B
:1025500000782E281CD10B98401C0B900B9800780B
:1025600030380A2804D20BA800F03FF981460AE06F
:102570000B9800782A2806D10B98401C0B900C98D9
:1025800050F8049B0C90B9F1000F01DA4FF00009EC
:10259000002004900B980078682803D00B980078EE
:1025A0006C2805D10B98007804900B98401C0B9078
:1025B0000A2005900B9800786F2875D00CDC6328F2
:1025C00013D004DC252870D058286FD18DE0642802
:1025D0006DD06928F9D18FE070286AD0732825D092
:1025E000752878D07828F0D182E005F0100040B945
:1025F00004E0B44201D820202070641C781E071E1D
:10260000F7DC0C9810F8041B0C90C8B20790B44289
:1026100001D807982070641C04E0B44201D820203F
:102620002070641C781E071EF7DCAAE00C98006876
:1026300006900C98001D0C90069808B95AA00690B8
:102640000698FFF769FB8346B9F1000F02DDCB4521
:1026500000DDCB4605F0100048B904E0B44201D8D3
:1026600020202070641C38467F1E5845F6DC002070
:1026700008900BE0B44202D8069800782070641CE1
:102680000698401C06900898401C089008985845E9
:10269000F0DB04E0B44201D820202070641C3846EE
:1026A0007F1E5845F6DC6CE01CE015E028E022E0D7
:1026B000FFE7781C10B9082745F00105CDE900793E
:1026C00002950C9804C8102331460C902046FEF762
:1026D0000BFB044655E012E0B44201D825202070DF
:1026E000641C4EE0082005901DE045F0400500BF49
:1026F0001020059017E000BF45F0020500BF12E072
:10270000B44201D825202070641C0B98007830B1A9
:10271000B44202D80B9800782070641C02E00B9839
:10272000401E0B902DE000BF04986C2807D10C9838
:1027300050F804AB0C9005F00200B8B116E0049814
:1027400068280BD10C9830F8041B1FFA81FA0C9002
:1027500005F0020050B10FFA8AFA07E00C9850F821
:1027600004AB0C9005F0020000B100BFCDE9007988
:102770000295524631462046059BFEF7B5FA0446BF
:1027800000BF0B98401C0B900B98007800287FF43A
:102790008BAEB44201D8207001E000203070A4EB71
:1027A00008000DB0BDE8F08F284E554C4C290000B4
:1027B00000207047002070470020704700207047BD
:1027C00010B5FDF723FDFEF72FFCFFF74DFAFFF7DD
:1027D00081FBFFF741FBFEF74DFBFFF789FBFFF79E
:1027E00027FCFFF75FFB002010BD0146002009E039
:1027F0000B685A1C0A601A7800EB800302EB430254
:10280000A2F130000A681278303A0A2AF0D37047F1
:1028100010B586B0044601210420FDF723FF0121F5
:102820008803FDF71FFF4FF40070ADF8040003208C
:102830008DF8060018208DF8070001A91248FDF751
:1028400019FE4FF48060ADF8040004208DF80700F5
:1028500001A90D48FDF70EFE02940020ADF814000A
:102860000C20ADF812000020ADF81000ADF80E00FD
:10287000ADF80C0002A90548FEF734F80121034821
:10288000FEF716F806B010BD000801400038014000
:10289000000001000200010003000100020001002D
:1028A0000400010002000100030001000200010019
:1028B0000500010002000100030001000200010008
:1028C00004000100020001000300010002000100F9
:1028D00006000100020001000300010002000100E7
:1028E00004000100020001000300010002000100D9
:1028F00005000100020001000300010002000100C8
:1029000004000100020001000300010002000100B8
:1029100007000100020001000300010002000100A5
:102920000400010002000100030001000200010098
:102930000500010002000100030001000200010087
:102940000400010002000100030001000200010078
:102950000600010002000100030001000200010066
:102960000400010002000100030001000200010058
:102970000500010002000100030001000200010047
:102980000400010002000100030001000200010038
:1029900030313233343536373839616263646566D5
:1029A00000303132333435363738394142434445CB
:1029B00046000000BD270008B5270008B127000821
:1029C000B9270008E429000800000020E400000006
:1029D0006C010008C82A0008E40000207C190000EF
:1029E0008801000800A24A04000000000000000066
:1029F00001020304060708090000000001020304A5
:102A0000010203040607080902040608000000008A
:102A100000000000000000000000000000000000B6
:102A200000000000000000000000000000000000A6
:102A30000000000000000000000000000000000096
:102A4000000000006000002060000020780000000E
:102A50000100000070000020700000202000000035
:102A600004000000800000208000002030000000F2
:102A700005000000900000209000002034000000BD
:102A800009000000A0000020A00000202C00000091
:102A90000000000000000000000000000000000036
:102AA0000000000000000000000000000000000026
:102AB0000000000000000000000000000000000016
:082AC00000000000010100000C
:0400000508000131BD
:00000001FF
