:020000040800F2
:1000000040150020CD010008D5010008B30200080A
:10001000D9010008DB010008DD0100080000000034
:10002000000000000000000000000000DF010008E8
:10003000E1010008000000003B020008F90600088A
:10004000E7010008E7010008E7010008E7010008F0
:10005000E7010008E7010008E7010008E7010008E0
:10006000E7010008E7010008E7010008E7010008D0
:10007000E7010008E7010008E7010008E7010008C0
:10008000E7010008E7010008E7010008E7010008B0
:10009000E7010008E7010008E7010008E7010008A0
:1000A000E7010008E7010008E7010008E701000890
:1000B000E7010008E7010008E7010008E701000880
:1000C000E7010008E7010008E7010008E701000870
:1000D000E7010008E7010008E7010008E701000860
:1000E000E7010008E7010008E7010008E701000850
:1000F000E7010008E7010008E7010008E701000840
:10010000E7010008E7010008E7010008E70100082F
:10011000E7010008E7010008E7010008E70100081F
:10012000E7010008E7010008E7010008E70100080F
:1001300000F002F800F03AF80AA090E8000C8244BF
:100140008344AAF10107DA4501D100F02FF8AFF29C
:10015000090EBAE80F0013F0010F18BFFB1A43F0A5
:100160000103184780200000A0200000103A24BF9F
:1001700078C878C1FAD8520724BF30C830C144BF0C
:1001800004680C607047000000230024002500264E
:10019000103A28BF78C1FBD8520728BF30C148BFEA
:1001A0000B6070471FB51FBD10B510BD00F0A9F85A
:1001B0001146FFF7F7FF00F0DEF800F0C7F803B4D0
:1001C000FFF7F2FF03BC00F0CFF8000009488047BA
:1001D00009480047FEE7FEE7FEE7FEE7FEE7FEE729
:1001E000FEE7FEE7FEE7FEE704480549054A064B41
:1001F000704700000907000831010008400F002087
:10020000401500204011002040110020EFF3108025
:1002100072B6704780F310887047324A1368012B1A
:1002200004D04FF0010313602F4A10602F4A116071
:100230002F484FF0805101607047EFF3108272B683
:100240002848016891B14FF000010160264801681B
:1002500029B1EFF3098121E9F00F0068016023491A
:1002600009680968B1E8F00F81F3098882F3108802
:100270004EF0040E70471D4908601B494FF0000006
:10028000086018494FF0010008601A484FF47F01D8
:10029000D0F8002041EA0201016015484FF080517A
:1002A000016015480068006880F3088861B662B68E
:1002B00070471EF0040F14BFEFF30880EFF30980BE
:1002C00020E9F00F40F804ED14BF80F3088880F3B4
:1002D000098800B500F09CFE5DF804EB4EF0040EBA
:1002E00070470000B0000020A8000020AC000020F3
:1002F00004ED00E020ED00E008ED00E070477047FD
:100300007047754600F02CF8AE4605006946534626
:1003100020F00700854618B020B5FFF765FFBDE85F
:1003200020404FF000064FF000074FF000084FF05C
:10033000000B21F00701AC46ACE8C009ACE8C009ED
:10034000ACE8C009ACE8C0098D46704710B504465A
:10035000AFF300802046BDE81040FFF730BF00003B
:1003600000487047E00E002001491820ABBEFEE7B0
:1003700026000200704710B5FFF748FF01F030FE7D
:10038000002010BD2DE9F041024600250026002086
:1003900000230024002791F803C00CF00F0591F80A
:1003A00003C00CF0100CBCF1000F03D091F802C098
:1003B0004CEA050591F800C0BCF1000F31D014687B
:1003C00000202BE04FF0010C0CFA00F3B1F800C054
:1003D0000CEA03069E4220D183004FF00F0C0CFA6A
:1003E00003F7BC4305FA03FC4CEA040491F803C08C
:1003F000BCF1280F06D14FF0010C0CFA00FCC2F83A
:1004000014C00AE091F803C0BCF1480F05D14FF0C9
:10041000010C0CFA00FCC2F810C0401C0828D1D313
:100420001460B1F800C0BCF1FF0F34DD5468002047
:100430002EE000F1080C4FF0010808FA0CF3B1F8B7
:1004400000C00CEA03069E4221D183004FF00F0C3E
:100450000CFA03F7BC4305FA03FC4CEA040491F8D8
:1004600003C0BCF1280F05D100F1080C08FA0CF804
:10047000C2F8148091F803C0BCF1480F07D100F115
:10048000080C4FF0010808FA0CF8C2F81080401C64
:100490000828CED35460BDE8F08141617047016106
:1004A0007047000008B50121042000F037F828202B
:1004B0008DF803000120ADF8000003208DF8020044
:1004C00069460248FFF75EFF08BD000000080140D2
:1004D000014611B101200F4A10700E48007870B12A
:1004E0000D48006800F0010048B10020094A107072
:1004F0000948006800F0010048B101207047064833
:10050000006800F0010010B90120024A10700020BC
:10051000F4E70000B80000200808014029B1064AAD
:1005200092690243044B9A6104E0034A9269824350
:10053000014B9A61704700000010024030B5002165
:100540000022002400232D4D6D6805F00C0121B11F
:10055000042905D0082923D105E0294D056022E0B2
:10056000274D05601FE0254D6D6805F47012234D81
:100570006D6805F48034022505EB92421CB9214DCB
:10058000554305600BE01D4D6D6805F400351DB148
:100590001C4D5543056002E0194D5543056002E0CE
:1005A000174D056000BF00BF144D6D6805F0F001E8
:1005B0000909154D6B5C0568DD4045600F4D6D68A0
:1005C00005F4E061090A104D6B5C4568DD4085600B
:1005D0000A4D6D6805F46051C90A0B4D6B5C4568A6
:1005E000DD40C560054D6D6805F44041890B074D40
:1005F0006B5CC568B5FBF3F5056130BD00100240CA
:1006000000127A0000093D001400002024000020A0
:1006100010B500F001F810BD0CB50020019000905D
:100620003348006840F480303149086000BF3048EA
:10063000006800F4003000900198401C0190009880
:1006400018B90198B0F5A06FF1D12948006800F4FD
:10065000003010B10120009001E0002000900098CF
:10066000012843D12348006840F010002149086068
:100670000846006820F0030008600846006840F063
:10068000020008601A4840681949486008464068F6
:1006900048600846406840F480604860084640680A
:1006A00020F47C1048600846406840F4E810486038
:1006B0000846006840F08070086000BF0C48006881
:1006C00000F000700028F9D00948406820F00300CD
:1006D000074948600846406840F00200486000BF93
:1006E0000348406800F00C000828F9D10CBD000058
:1006F000001002400020024010B500F0AFFD01F0F4
:10070000A5F900F0BBFD10BD10B51348006840F01E
:1007100001001149086008464068104908400E4928
:100720004860084600680E4908400B4908600846C2
:10073000006820F4802008600846406820F4FE002D
:1007400048604FF41F008860FFF762FF4FF00060C1
:100750000449086010BD0000001002400000FFF8CE
:10076000FFFFF6FE08ED00E021B1828942F400525D
:10077000828104E082894DF6FF731A4082817047BE
:1007800002460020B1F5007F00D100BF13880B4066
:100790000BB1012000E00020704700002DE9F04778
:1007A00086B005460E460024A24600BFA14600279B
:1007B000B08900B100BF2F462C8A4CF6FF70044070
:1007C000F08804432C82AC894EF6F3100440B088C4
:1007D00031890843718908430443AC81AC8A4FF6E0
:1007E000FF400440B0890443AC8201A8FFF7A6FE95
:1007F0001F48874202D1DDF810A001E0DDF80CA00F
:10080000A88900F4004040B10AEBCA0000EB0A10CE
:1008100031684900B0FBF1F807E00AEBCA0000EBD1
:100820000A1031688900B0FBF1F86420B8FBF0F0E1
:1008300004012009642101FB1089A88900F400400B
:1008400040B1322000EBC900B0FBF1F000F007002E
:10085000044308E0322000EB09106421B0FBF1F002
:1008600000F00F0004432C8106B0BDE8F0870000C3
:1008700000380140C1F3080282807047014609B97F
:1008800000207047C8B220B1C8B20E4A105C401CAC
:10089000F7E701F47F4028B10A48C1F30722805CE2
:1008A0000930EEE701F47F0028B10648C1F30742A2
:1008B000805C1130E5E7034800EB116000781930E7
:1008C000DFE70000B020000803490868884201D033
:1008D000012070470020FCE7940000202DE9FC5F18
:1008E00004468B4615461E46DDE90C9ADDE90E7876
:1008F00004F114004060006000BF1C346560A66015
:10090000C4F80C90C4F810A02321D4E9030200F02D
:1009100052FDD4E9033C63441A1F0F4BD4E9010193
:1009200000F076FC2060A77667760020E061C4F8CE
:100930002880C4F82C8060612076E06520661C3C2D
:1009400000902346054A2146019004F14C0001F035
:10095000FFF80020BDE8FC9F7D170008BD190008C6
:100960002DE9F04704460E4617469846DDF82090DC
:1009700084F80990607A20F001006072E6612762D5
:100980000020A062C4F82480002506E004F11401D0
:1009900001EBC50000F0DEFC6D1C012DF6DBBDE8AF
:1009A000F08710B50246002001460EE002F1140364
:1009B00003EBC100D0E900436360D0E90034236059
:1009C0004060006000BF481C01460129EEDB10BDFD
:1009D0000DE00020FFF77CFD30B105A000F09CFC8D
:1009E0000121074800F039FA052000F0C0FEF0E7C9
:1009F0004B657920B1BBB5E3BBF70D0A00000000E1
:100A0000BC09002008B501214820FFF787FD102010
:100A10008DF803002020ADF8000003208DF80200BF
:100A200069460848FFF7AEFC20210648FFF737FD6E
:100A300069460548FFF7A6FC20210348FFF72FFD74
:100A400008BD0000000C0140001801401CB500204A
:100A500001901FE001A84FF0FF3306220121009012
:100A60000D4800F08DF90198012804D10B48007859
:100A7000C0430A4908700948007820B1202108487D
:100A8000FFF70DFD03E020210548FFF706FD0520D7
:100A900000F06DFEDEE70000BC0900202800002009
:100AA000000C01401FB5002214A1174800F058F9AE
:100AB000142003214FF48062144BCDE90032CDE9BC
:100AC00002100023124A13A1134800F0DFFE12485F
:100AD00000F03CFF142002214A02104BCDE9003205
:100AE000CDE9021000230E4A0EA10F4800F0CEFE01
:100AF0000D4800F02BFF002004B010BD6576656E38
:100B0000745F746578740000BC090020BC0000208C
:100B10004D0A00086C656400BC0400203C05002000
:100B2000D10900086B6579003C09002010B5044626
:100B300000F0F8F8FFF7B6FF10BD00002DE9F04F08
:100B400085B00D469C46DDE90F740E9B04F040080D
:100B5000B8F1000F02D0DFF8688101E0DFF86481AE
:100B6000CDF8008004F01008B8F1000F01D024F097
:100B7000010404F00108B8F1000F02D04FF0300872
:100B800001E04FF02008C246002604F00208B8F148
:100B9000000F11D0002A02DA2D2652420CE004F098
:100BA0000408B8F1000F01D02B2605E004F0080876
:100BB000B8F1000F00D02026002142B94FF0300BD1
:100BC0008846491C0DF1040909F808B01DE01AE037
:100BD000E146B9F10A0F08D14FF00A0BB2FBFBFE58
:100BE0000BFB1E28B2FBFBF202E002F00F08120919
:100BF00000BFDDF8009019F808B08846491C0DF1D7
:100C0000040909F808B0002AE2D1B94200DD0F4614
:100C1000DB1B04F01108B8F1000F10D116B1002B46
:100C200000DD5B1E06E0A84203D84FF0200880F8E4
:100C30000080401CB3F10008A3F10103F3DC26B1EE
:100C4000A84201D806705B1E401C04F01008B8F1E1
:100C5000000F0AD104E0A84201D880F800A0401C8F
:100C6000B3F10008A3F10103F5DC06E0A84203D8C4
:100C70004FF0300880F80080401CB8467F1E884541
:100C8000F4DC08E0A84205D80DF1040818F801804A
:100C900080F80080401CB1F10008A1F10101F1DCF5
:100CA00006E0A84203D84FF0200880F80080401CDE
:100CB000B3F10008A3F10103F3DC05B0BDE8F08F48
:100CC000C1210008B02100087FB50A4C14200A2178
:100CD0004FF40072084BCDE90032CDE90210002339
:100CE000064A07A1204600F0D1FD0546204600F047
:100CF0002DFE7FBDE00B0020E00900202D0B000839
:100D00006D61696E0000000010B5044C02E02068BF
:100D10008047241D02488442F9D310BDD821000821
:100D2000DC21000810B5044C02E020688047241D37
:100D300002488442F9D310BDDC210008E0210008FC
:100D400010B5FFF763FA044604480088401C00B25F
:100D5000024908802046FFF75DFA10BD840000209C
:100D600070B504460D4616462A460321204600F07B
:100D70006FFB6672204600F0C7FA0020E06170BD8C
:100D80002DE9FF4705460E461746DDF8308026B9A7
:100D90004FF0FF3004B0BDE8F0874FF0FF3900F0AE
:100DA000ADFD044600202063FFF730FA824607F0CD
:100DB000010030B1E8693040B0420AD14FF000097B
:100DC00007E007F0020020B1E869304008B14FF0B9
:100DD0000009B9F1000F0DD1B8F1000F03D0E86997
:100DE0003040C8F8000007F0040088B3E869B04359
:100DF000E8612DE0039818B96FF00100206327E047
:100E0000E66384F840706A7A214605F1140000F028
:100E100045FA0398002809DD03AA002104F14C00DB
:100E200000F06AFE04F14C0000F0AAFE5046FFF705
:100E3000F1F900F039FB206B08B1206BAAE7FFF74E
:100E4000E5F98246B8F1000F02D0E06BC8F8000067
:100E50005046FFF7DFF9206B9CE72DE9F047044689
:100E60000F461FB94FF0FF30BDE8F0874FF0000884
:100E7000FFF7CCF98246E0693843E06104F11400E1
:100E800000F080FA002838D1666932E0A6F1140536
:100E90004FF0FF3995F8400000F0010040B1E86BD9
:100EA000E1690840E96B884211D14FF000090EE07A
:100EB00095F8400000F0020048B1E86BE169084095
:100EC00028B1E86BE1690840E8634FF00009366833
:100ED000B9F1000F0DD195F8400000F0040018B1F1
:100EE000E069E96B8843E061284600F0E9FC4FF0D7
:100EF000010804F114008642C8D15046FFF78AF970
:100F0000B8F1010F01D100F0CFFA0020ACE70000EA
:100F100010B5FFF77BF904460B480088401E00B26D
:100F2000094908800846B0F90000002807DC0020C5
:100F300008802046FFF76EF900F0B6FA02E020467E
:100F4000FFF768F910BD00008400002070B5194853
:100F500000684FF47A72B0FBF2F1B1F1807F00D3F8
:100F60001DE021F07F40401E4FF0E02250615017FD
:100F70000F22002807DA13071D0E0F4B00F00F0495
:100F8000241F1D5503E013071C0E0C4B1C5400BFFF
:100F900000204FF0E02290610720106100BFFFF7B2
:100FA00081FAFFF72FFD4FF4E13001F041F8FFF730
:100FB000ABFE70BD0000002018ED00E000E400E092
:100FC00010B50446FFF7BCFE19E020780A280AD1C4
:100FD0000D210E48FFF74EFC00BF40210B48FFF7E4
:100FE000CFFB0028F9D014F8011B0848FFF742FC9A
:100FF00000BF40210548FFF7C3FB0028F9D0207847
:101000000028E2D1FFF784FF10BD00000038014046
:1010100070B505462C1D2E48006838B128462C496D
:1010200009688847064606B970BD00BF29A0E16B74
:1010300000F072F92BA0216A00F06EF92DA0616A10
:1010400000F06AF92FA0A16A00F066F931A0E16A08
:1010500000F062F933A0216800F05EF935A0616804
:1010600000F05AF937A0A16800F056F939A0E168FC
:1010700000F052F93BA0216900F04EF93DA06169F2
:1010800000F04AF93FA0A16900F046F941A0E169EA
:1010900000F042F943A0216B00F03EF945A0616BDE
:1010A00000F03AF947A0A16B00F036F9287800F07B
:1010B000040038B100F022FC0646314645A000F09D
:1010C0002BF902E04BA000F027F900BFFEE700007B
:1010D000B40000207073723A203078253038780AD6
:1010E000000000007230303A203078253038780A1D
:1010F000000000007230313A203078253038780A0C
:10110000000000007230323A203078253038780AFA
:10111000000000007230333A203078253038780AE9
:10112000000000007230343A203078253038780AD8
:10113000000000007230353A203078253038780AC7
:10114000000000007230363A203078253038780AB6
:10115000000000007230373A203078253038780AA5
:10116000000000007230383A203078253038780A94
:10117000000000007230393A203078253038780A83
:10118000000000007231303A203078253038780A7B
:10119000000000007231313A203078253038780A6A
:1011A000000000007231323A203078253038780A59
:1011B00000000000206C723A203078253038780A20
:1011C000000000002070633A203078253038780A1B
:1011D0000000000068617264206661756C74206FA5
:1011E0006E207468726561643A2025730D0A0D0AD9
:1011F0000000000068617264206661756C74206F85
:101200006E2068616E646C65720D0A0D0A00000044
:10121000F0B504460D461646301D20F00700403854
:101220000146002203E00C4F41F82270521C102AA4
:10123000F9D30D624FF0000CC1F824C0C1F828C0EA
:10124000C1F82CC0C1F830C04B638C634FF0807C78
:10125000C1F83CC0F0BD0000EFBEADDE10B5FEF73A
:10126000D5FF044604480078401C03490870204616
:10127000FEF7D0FF10BD00003000002010B5FEF7D3
:10128000C5FF044604480078401E03490870204604
:10129000FEF7C0FF10BD0000300000202DE9F04136
:1012A00005460C469046204600F066FBB8F1000F5C
:1012B00003D0B8F1010F23D105E004F11401284651
:1012C00000F059F81CE02E680FE0A6F1140794F81E
:1012D000350097F83510884206DA04F1140107F159
:1012E000140000F048F802E03668AE42EDD100BFCD
:1012F000AE4204D104F11401284600F03CF800BFCE
:1013000000BF0020BDE8F08110B5044604F11400D0
:1013100000F01AF8002010BD0FB438B505A80090F1
:101320007F210848009B049A00F0BEFC04467F2CF5
:1013300000D97F240348FFF743FE0020009038BC0B
:101340005DF814FB600D0020406000607047406055
:10135000006070474060006070470268516002683A
:101360000A600160486070470268516002680A6064
:101370000160486070474268116042684A6041609D
:101380000860704701460868884201D10120704713
:101390000020FCE701460868884201D1012070471F
:1013A0000020FCE7D0E900215160D0E90012116073
:1013B000406000607047F0B50C460546E6B2042A6E
:1013C00015D300F0030797B9014646EA062343EA1E
:1013D000034304E008C108C108C108C1103A102A3B
:1013E000F8D201E008C1121F042AFBD20D4601E029
:1013F00005F8016B171EA2F10102F9D1F0BD70B51D
:101400000446FEF703FF054604F10C00D0E9002175
:101410005160D0E9001211604060006000BF2846B2
:10142000FEF7F8FE70BD0000024600210AE0074802
:1014300000EB01100078904203D1044800EB01104A
:101440007047491C0529F2DB0020F9E73400002031
:101450002DE9F04104460D4616462846FFF7E4FF05
:10146000074645F08000207208223146204600F0F1
:1014700016F9FEF7CBFE8046381D04F10C01026818
:10148000516002680A600160486000BF4046FEF794
:10149000C1FEBDE8F0810146087A00F0800008B185
:1014A000012070470020FCE72DE9F041FEF7AEFE79
:1014B00007461B48008868BB1A480068FFF7DEF93A
:1014C000461E194850F83600A0F114041748006869
:1014D00084421BD016490E701448056804601548F4
:1014E000007848B904F11C0105F11C00FEF795FED7
:1014F0003846FEF78FFE0CE004F11C0105F11C00DC
:10150000FEF78BFE3846FEF785FE02E03846FEF712
:1015100081FE02E03846FEF77DFEBDE8F081000066
:101520008400002090000020E00D002088000020B2
:101530008C0000203000002070B50446FEF766FEE7
:10154000054614F8340F20F00F0040F00100207021
:101550006278343C0A4B03EBC20004F11401426888
:10156000116042684A604160086000BF0549A06B95
:1015700009680843034908602846FEF74BFE70BD22
:10158000E00D00209000002070B50446FEF73EFEFE
:10159000054604F11400D0E900215160D0E90012A1
:1015A00011604060006000BF94F83510094A02EBFA
:1015B000C1000168814201D1012100E0002129B16F
:1015C0000548A16B00688843034908602846FEF778
:1015D00021FE70BDE00D00209000002008B509A09C
:1015E000FFF79AFE0AA0FFF797FE12A0032300223E
:1015F0001946009012A0FFF78FFE19A0FFF78CFE8E
:1016000008BD00000A205C207C202F0A000000009A
:101610002D205254202D20202020205468726561F6
:1016200064204F7065726174696E672053797374BA
:10163000656D0A004D617920203420323031390047
:10164000202F207C205C202020202025642E256453
:101650002E2564206275696C642025730A000000E1
:101660002032303036202D203230313820436F7018
:101670007972696768742062792072742D74687257
:10168000656164207465616D0A00000001460A46C8
:1016900000E0521C10780028FBD1501A704770B53A
:1016A0000346A2B118460C4600BF14F8016B00F8BF
:1016B000016B3EB902E0002500F8015B551E2A1EB1
:1016C000F9D102E0551E2A1EEFD100BF00BF184617
:1016D00070BD000010B500200B490880002405E013
:1016E0000A4901EBC400FFF732FE641C202CF7DB33
:1016F0001F20074908700020064908600649086055
:101700000648FFF724FE10BD84000020E00D0020F5
:101710008C00002088000020900000209400002011
:1017200070B508480068FFF7A9F8451E064850F84C
:101730003500A0F114040548046004F11C00FEF714
:101740009AFD70BD90000020E00D00208800002070
:1017500010B5002405E0044901EBC400FFF7FAFDD1
:10176000641C002CF7D010BD9C000020704710B501
:101770000446204600F0C8F810BD000070B51248BD
:101780000468FEF743FD05462046FFF7FDFE0420F2
:1017900084F8340004F14C0000F0CAF92046FFF749
:1017A0007AFE012805D1A06F18B92046FFF727FE61
:1017B00004E004F114010548FFF7CFFD2846FEF7C9
:1017C00029FDFFF771FE70BD880000209400002005
:1017D00001E000F001F8FCE770B531E0FEF716FD1E
:1017E0000546FFF771F818B318480068A0F1140413
:1017F00004F11400D0E900215160D0E90012116019
:101800004060006000BFFFF79BFAA06F10B1204658
:10181000A16F88472046FFF73EFE012805D1FFF75C
:1018200077FB2846FEF7F6FC70BDFFF771FB03E07F
:101830002846FEF7EFFCF7E72846FEF7EBFC00BF73
:10184000FFF742F80028C9D100BFEDE7940000205F
:101850001FB520201F218022074BCDE90032CDE9A2
:1018600002100023054A06A1074800F00FF80648B9
:1018700000F06CF81FBD0000E00C0020D11700083C
:101880007469646C65000000600C00202DE9FF5F46
:1018900005460C4616461F46DDE910ABDDE90E890C
:1018A000224600212846FFF7D3FD3B46324621461B
:1018B00028468DE8000FFFF711F804B0BDE8F09F4F
:1018C00070B5044694F8340000F00F00022802D0EE
:1018D0004FF0FF3070BDFEF799FC054604F114008F
:1018E000FFF760FD04F14C0000F0C6F92846FEF752
:1018F00091FC2046FFF720FE0020EBE7014800683E
:10190000704700008800002031B5FEF77FFC0546D7
:101910000D480468204600F02FF86A46002104F1C3
:101920004C0000F0E9F804F14C0000F029F92846D9
:10193000FEF770FCFFF7B8FD206B801C08B9002093
:101940002063002038BD00008800002010B5044648
:101950003434A07860706178012088406060022093
:1019600004F834092046FFF7ABFFFFF7C7FF08B1C3
:10197000FFF79AFD002010BD70B5044694F83400BE
:1019800000F00F00012802D04FF0FF3070BDFEF7CD
:101990003DFC054694F8340020F00F0040F00200B2
:1019A00084F834002046FFF7EFFD04F14C0000F00E
:1019B00063F92846FEF72EFC0020E7E770B50446E1
:1019C00025466FF00100286305F11400FFF7EAFCDB
:1019D0002846FFF7B1FDFFF767FD70BD70B5FEF754
:1019E00015FC05461448046894F8340000F00F0014
:1019F00001281CD1D4E90510814218D004F114004B
:101A0000FFF7D0FC94F835200C4B03EBC20004F137
:101A100014014268116042684A604160086000BF7A
:101A20002846FEF7F7FBFFF73FFD002070BD284674
:101A3000FEF7F0FB0020F9E788000020E00D002011
:101A400001480068704700002C00002010B50A48CB
:101A50000068401C08490860FFF750FF0446A06C6E
:101A6000401EA064A06C18B9606CA064FFF7B6FFBC
:101A700000F004F810BD00002C00002070B5FFF746
:101A8000DFFF0546FEF7C2FB064628E0194800685E
:101A9000A0F11404A06A281A6FF0004188421DD2F8
:101AA0002046FEF77EFFD4E907108847FFF7C8FFFE
:101AB0000546607A00F0020058B1607A00F001003B
:101AC00038B1607A20F001006072204600F058F8CA
:101AD00005E0607A20F00100607200E004E0054853
:101AE000FFF758FC0028D1D000BF3046FEF792FB2C
:101AF00070BD00009C000020034649B1012904D0BC
:101B0000022908D0032910D10AE0586A10600CE0BD
:101B10001068586209E0587A20F00200587204E018
:101B2000587A40F00200587200BF00BF0020704792
:101B300070B50446FEF76AFB05462046FEF731FF06
:101B40002846FEF767FB2046FFF759FC002070BDD2
:101B50002DE9F84307460C4615461E46DDE908897F
:101B6000224609213846FFF773FC43463246294690
:101B70003846CDF80090FEF7F3FEBDE8F88300008C
:101B80002DE9F8430546FEF741FB80462846FEF75F
:101B900008FF687A20F0010068724046FEF73AFBC1
:101BA000FFF74EFF696A0844A862FEF72FFB8046E4
:101BB0002F4F009700242AE019E05DF824201168D7
:101BC000142202EBC402881A826AAB6AD21A00D1CC
:101BD00008E0826AAB6AD21A6FF000439A4200D2E0
:101BE0000CE000BF5DF8240000684DF824005DF8AB
:101BF000240007EBC40149688842DED100BF2CB144
:101C00005DF824000830611C4DF82100641C002C94
:101C1000D2D018480068401C16490860084606687B
:101C200005F114010098FFF79FFB022412E006F073
:101C3000030060B9C4F1010305F1140202EBC30112
:101C4000C4F101025DF82200FFF78EFB00E003E023
:101C5000B608641C012CEAD900BF687A40F0010084
:101C600068724046FEF7D6FA0020BDE8F88300000F
:101C70009C000020A400002070B50446607A00F0AB
:101C8000010010B94FF0FF3070BDFEF7BFFA0546F6
:101C90002046FEF786FE2846FEF7BCFA607A20F062
:101CA000010060720020EFE72DE9FF4F89B0804608
:101CB00044460A984044461E464504D24FF0FF363B
:101CC000A6EB08000A906FE10B980078252806D053
:101CD000B44202D80B9800782070641C61E10025A2
:101CE00026E00B98401C0B900B9800782D2802D111
:101CF00045F010051CE00B9800782B2802D145F028
:101D0000040515E00B980078202802D145F008055D
:101D10000EE00B980078232802D145F0200507E05B
:101D20000B980078302802D145F0010500E000E072
:101D3000D7E700BF4FF0FF370B98007830380A28FC
:101D400004D20BA800F061F907460EE00B9800786A
:101D50002A280AD10B98401C0B900C9880C80C9034
:101D6000002F02DA7F4245F010054FF0FF390B9843
:101D700000782E281CD10B98401C0B900B980078F3
:101D800030380A2804D20BA800F03FF981460AE057
:101D90000B9800782A2806D10B98401C0B900C98C1
:101DA00050F8049B0C90B9F1000F01DA4FF00009D4
:101DB000002004900B980078682803D00B980078D6
:101DC0006C2805D10B98007804900B98401C0B9060
:101DD0000A2005900B9800786F2875D00CDC6328DA
:101DE00013D004DC252870D058286FD18DE06428EA
:101DF0006DD06928F9D18FE070286AD0732825D07A
:101E0000752878D07828F0D182E005F0100040B92C
:101E100004E0B44201D820202070641C781E071E04
:101E2000F7DC0C9810F8041B0C90C8B20790B44271
:101E300001D807982070641C04E0B44201D8202027
:101E40002070641C781E071EF7DCAAE00C9800685E
:101E500006900C98001D0C90069808B95AA00690A0
:101E60000698FFF713FC8346B9F1000F02DDCB455E
:101E700000DDCB4605F0100048B904E0B44201D8BB
:101E800020202070641C38467F1E5845F6DC002058
:101E900008900BE0B44202D8069800782070641CC9
:101EA0000698401C06900898401C089008985845D1
:101EB000F0DB04E0B44201D820202070641C3846D6
:101EC0007F1E5845F6DC6CE01CE015E028E022E0BF
:101ED000FFE7781C10B9082745F00105CDE9007926
:101EE00002950C9804C8102331460C902046FEF74A
:101EF00025FE044655E012E0B44201D825202070AA
:101F0000641C4EE0082005901DE045F0400500BF30
:101F10001020059017E000BF45F0020500BF12E059
:101F2000B44201D825202070641C0B98007830B191
:101F3000B44202D80B9800782070641C02E00B9821
:101F4000401E0B902DE000BF04986C2807D10C9820
:101F500050F804AB0C9005F00200B8B116E00498FC
:101F600068280BD10C9830F8041B1FFA81FA0C90EA
:101F700005F0020050B10FFA8AFA07E00C9850F809
:101F800004AB0C9005F0020000B100BFCDE9007970
:101F90000295524631462046059BFEF7CFFD04468A
:101FA00000BF0B98401C0B900B98007800287FF422
:101FB0008BAEB44201D8207001E000203070A4EB59
:101FC00008000DB0BDE8F08F284E554C4C2900009C
:101FD00000207047002070470020704700207047A5
:101FE00010B5FEF713F9FEF7B1FFFFF7F7FAFFF7A9
:101FF000AFFBFFF76FFBFEF767FEFFF7B7FBFFF7DF
:1020000027FCFFF78DFB002010BD0146002009E0F2
:102010000B685A1C0A601A7800EB800302EB43023B
:10202000A2F130000A681278303A0A2AF0D37047D9
:1020300010B586B0044601210420FEF76FFA012195
:102040008803FEF76BFA4FF40070ADF8040003202C
:102050008DF8060018208DF8070001A91248FEF738
:1020600091F94FF48060ADF8040004208DF807006A
:1020700001A90D48FEF786F902940020ADF814007E
:102080000C20ADF812000020ADF81000ADF80E00E5
:10209000ADF80C0002A90548FEF780FB01210348BA
:1020A000FEF762FB06B010BD000801400038014099
:1020B0000000010002000100030001000200010015
:1020C0000400010002000100030001000200010001
:1020D00005000100020001000300010002000100F0
:1020E00004000100020001000300010002000100E1
:1020F00006000100020001000300010002000100CF
:1021000004000100020001000300010002000100C0
:1021100005000100020001000300010002000100AF
:1021200004000100020001000300010002000100A0
:10213000070001000200010003000100020001008D
:102140000400010002000100030001000200010080
:10215000050001000200010003000100020001006F
:102160000400010002000100030001000200010060
:10217000060001000200010003000100020001004E
:102180000400010002000100030001000200010040
:10219000050001000200010003000100020001002F
:1021A0000400010002000100030001000200010020
:1021B00030313233343536373839616263646566BD
:1021C00000303132333435363738394142434445B3
:1021D00046000000DD1F0008D51F0008D11F0008C1
:1021E000D91F00080422000800000020BC000000E5
:1021F0006C010008C0220008BC000020841400000C
:102200008801000800A24A0400000000000000004D
:10221000010203040607080900000000010203048C
:102220000102030406070809020406080000000072
:102230000000000000000000000000003800002046
:10224000380000208000000001000000480000204D
:10225000480000202000000003000000580000207B
:10226000580000202000000004000000680000204A
:102270006800002030000000090000007800002005
:10228000780000202C00000000000000000000008A
:10229000000000000000000000000000000000003E
:1022A000000000000000000000000000000000002E
:1022B000000000000000000000000000010000001D
:0400000508000131BD
:00000001FF
